:03000000023E516C
:10340000E4F508F509F50AF50BF50CF50DF50EF5E3
:103410000FF510F511F513F514F515F516A2B933DE
:10342000F518C2B9A2AFE433F517C2AF1239F8E408
:10343000F593758055751201E5127002A1C220C185
:1034400002A12EC2C1123B44900009E060EAE4F000
:10345000F50EF50F90002FE0F50914B409004002B5
:10346000A12690346C25E05002058373A121817E52
:10347000818FA10B81BA81D3A126A126A113123C71
:1034800080123B7AE4F50CF50DF50AF50BA129E560
:1034900008B40121751C00751D00751E15751F00EF
:1034A00075200075211375220075230075241112F3
:1034B0003C80123711850880806FE508B4020F75D3
:1034C0001C00751D00751E13123C8012380075809B
:1034D000408056C2E8E514B5161EE513B515197DF2
:1034E000017F007EFE123CC0AD117F047EFE123CC7
:1034F000C07508017F0780027F08123A43900005DB
:10350000E07003750803758010801E12399775806E
:10351000208016E50860057F0A123A437580808096
:1035200008E4F5088003750803E4F5098138E50827
:103530007067050BE50B7002050AD39420E50A9429
:103540000350028138E4F50AF50BE5102401FFE48D
:1035500033FE7C007D03123E158D1074062510F598
:1035600082E43400F583E0FF123CAB851080050D4A
:10357000E50D7002050CD39409E50C94005002810E
:1035800038E4F50CF50DFF7EFE123D54BF01047FBB
:103590000080027F018F128138E50864016002819A
:1035A00038050FE50F7002050EAE0EFFE4FCFD7B43
:1035B000607AEAF9F8C3123DE940028138E4F5087F
:1035C0008138123B08E4F5807593FFE51724FF92DC
:1035D000AFE51824FF92B97F027EFE123D54783E7B
:1035E000A6077F037EFE123D54783FEFF6FD18E6F6
:1035F000FEEDAA06F9023E0F8F2D8B2E8A2F893001
:10360000753501852E33E52D14600C24FB600824EC
:10361000FE60142408702C123D0A8F318F32C2E9EB
:10362000E52D240AFF8017123CE48F2DE52DC3946D
:10363000075010123D5B8F318F32C2E97F61123D1E
:10364000328005E4F532F531E5337027853036E414
:10365000F5E7E5357008A836A63405368003E4F5AD
:1036600035E5E6540260FA85E734D531E2A836A69E
:1036700034E108E5336401702E852F36853037E458
:10368000F5E7E535700D123BCF0537E537700705D7
:10369000368003E4F535E5E6540260FA85E734D573
:1036A00031DD123BCF8061E53364FE702985303611
:1036B000E4F5E7E5357009A836E534F20536800310
:1036C000E4F535E5E6540260FA85E734D531E1A842
:1036D00036E534F28032852E36852F37853038E452
:1036E000F5E7E5357010123BC474012538F538E470
:1036F0003537F5378003E4F535E5E6540260FA85A1
:10370000E734D531DA123BC4D2E9E52DFEE532FFCC
:10371000228B198A1A891BE4FFF529F52AF52574ED
:10372000302525F582E43400F583E02FFF0525E5FB
:1037300025B407EBEF60079000107402801C900026
:1037400030E0FEA3E0FDEEF529EDF52AD39420E567
:103750002994F4400B9000107404F07F08023A435F
:10376000AB1CAA1DA91EE529852AF0123DCA9000AE
:1037700032E0783EF6A3E008F6A3E008F67F2312D5
:103780003CFE123C797530007531037F017EFE12DC
:103790003A8A900035E0AB22AA23A924123D80ABDF
:1037A0001FAA20A921E4F5F0123DCA123C8775300A
:1037B00000753103E4FFFE123BD95387EFE4FF129B
:1037C0003CFE123C87753000753103E4FFFE123A6F
:1037D0008A5387EF752501AF25123CFE0525E525A7
:1037E000C3941A40F27F07123A43900005E0AB19E8
:0F37F000AA1AA91B600474028001E4123D802212
:103800008B198A1A891BE4FD900030E0F520A3E0B3
:10381000FEA3E0FBEEF521EBF522C2E8E4F51FE59F
:10382000202405FFE433FEE51FC39FEE6480F87497
:10383000809850127430251FF582E43400F583E03F
:103840002DFD051F80D9ED60079000107402807473
:10385000E4F51FE51FC3952050187434251FF58229
:10386000E43400F583E0FF743E251FF8A607051F2A
:1038700080E1E5224521701F438710E5222403FFE4
:10388000E43521FE7B007A007941E52024FDF53105
:10389000E434FFF5308020AF207E00E5222FFDEEDE
:1038A0003521FCC3ED9420EC94F45013123C768E39
:1038B000308F31AF22AE21123A8A5387EF800B90BE
:1038C00000107403F07F08023A43AB1CAA1DA91E26
:1038D000E48520F0123D927F07123A43900005E004
:1038E000700BAB19AA1AA91B7403123D80228B2EF0
:1038F0008A2F8930AD2EC2E98FE7ED7019853033FC
:10390000A833E6FE0533E5E6540260FA85E7328E19
:10391000E7D531EC8075ED64017026852F33853055
:1039200034853482853383E0FE0534E53470020546
:1039300033E5E6540260FA85E7328EE7D531E2805E
:103940004AED64FE7019853033A833E2FE0533E595
:10395000E6540260FA85E7328EE7D531EC802C859B
:103960002E33852F34853035AB33AA34A935123D3B
:1039700067FE74012535F535E43534F534E5E65454
:103980000260FA85E7328EE7D531DDE5E654026064
:10399000FA85E732D2E922C2E8900030E0F519A3B7
:1039A000E0FEA3E0FDEEF51AEDF51B123C76753056
:1039B00000851931AF1BAE1A123BD95387EFE51BB7
:1039C000451A7011FB7A00793EF5307531037F019D
:1039D0007EFE123BD9E4FFEFC395195015743E2FBC
:1039E000F8E6FE74102FF582E43400F583EEF00F54
:1039F00080E57F07123A4322E4900009F090000529
:103A0000F0D2EA7D20FF123D467DF47C017F051255
:103A10003BFD7B017A00790AE4FF123ACB7B017A05
:103A200000790A7F06123ACB900007E0FF123CAB08
:103A30007F01123C1F123D3CBF02FA7F01123C3C49
:103A4000D2E8228F2BC2E8E4FF123C1F90000FE562
:103A50002BF07B017A00790F7D20123D4D752C14DF
:103A6000D2E8AF2C152CEF70F9C2E8E4900005F015
:103A700030C1FDC2C1123B447F2090000FE4F0A38F
:103A8000DFFC7F01123C1FD2E8228B2D8A2E892F6A
:103A9000123CD48E3B8F3CE5311531AE30700215AF
:103AA000304E6023782DE475F001123DFF123D6722
:103AB000FF053CE53CAC3B7002053B14F5828C8372
:103AC000EFF030FCD280FB123CDD228F198B1A8A7A
:103AD0001B891CE51914600A24FB50196004240694
:103AE0007025123D0A8F31E519242AFFAB1AAA1B53
:103AF000A91C0238EEE519240AFFAB1AAA1BA91C5F
:103B0000123D67FD123C5922C2E8E4FF123C3CE43E
:103B1000FF123C1F90004FE0FF123CAB7B017A008C
:103B200079007F06123ACB7B017A007900E4FF121C
:103B30003ACB7DFA7C007F03123BFDE4FDFF123D92
:103B400046C2EA22123CF2EF24F0600D24D060124B
:103B500024207025900005801D123D1EE490000574
:103B6000F022123D14EF700B7B017A00792F123D89
:103B70006180EF9000097401F0228B198A1A891B69
:103B8000900010E53DF07F047EFE123D5490001140
:103B9000EFF07F07123A43900005E0AB19AA1AA98B
:103BA0001B600474018001E4123D80221313540150
:103BB000F500AF00EF22FFE4C4F854F0C8EFC4549E
:103BC0000F48FF22AB36AA37A938E534023D80857D
:103BD0003782853683E534F022E5311531AC30701B
:103BE0000215304C60168F828E83E0123D800FBF2D
:103BF00000010E740129F9E43AFA80DD22AB07ECEA
:103C0000540FC454F0FFE519540F4FF519EB540F3E
:103C1000FFE51954F04FF519AD197F04023C598F97
:103C20002DE4FF123C918F2EE52DB40105432E01AA
:103C30008003532EFEAD2EE4FF023C598F19E4FFA2
:103C4000123C918F1AE519B40105431A02800353FF
:103C50001AFDAD1AE4FF023C59C2E9EF2420F5E752
:103C6000E5E6540260FAAFE78DE7E5E6540260FA54
:103C700085E72FD2E9224387107B007A00793E2224
:103C80007B007A007908224387107B007A0079262E
:103C900022C2E98FE7E5E6540260FAAFE7E4F5E710
:103CA000E5E6540260FAAFE7D2E922E4F519EF54F1
:103CB0007FFFE51954804FF519AD197F05023C5976
:103CC000123CD48E398F3A8F828E83EDF020FCFD2A
:103CD000123CDD22A2AF92D5C2AFD2FD22C2FDA21C
:103CE000D592AF22123D28EF540EFFE4C313EF1319
:103CF000FF227D707F07123C59EF5470FF22123C67
:103D0000D48FFA20FCFD123CDD227F03123C91EFA0
:103D10002402FF227F17123C91EF5401FF22C2E9D7
:103D20007FE1123D32D2E922C2E97FFF123D32D259
:103D3000E9228FE7E5E630E1FBAFE722E5AD7F0161
:103D400030E3027F0222EF2411FF023C598D317FC4
:103D5000A00238EE8F828E83E0FF227F60123C91BA
:103D6000227F081235F822BB010689828A83E0226D
:103D70005002E722BBFE02E32289828A83E4932277
:103D8000BB010689828A83F0225002F722BBFE0122
:103D9000F322BB010789828A83023E2F500B09C59B
:103DA000F027F7C5F01937F722BBFE0D09F8E32518
:103DB000F0F3C5F019E338F322F889828A8374019D
:103DC0009325F0C5F0F8E4933822BB010A89828A72
:103DD00083F0E5F0A3F0225006F709A7F01922BB03
:103DE000FE06F3E5F009F31922EB9FF5F0EA9E4297
:103DF000F0E99D42F0EC6480C864809845F022FAB6
:103E0000E6FB0808E6F925F0F618E6CA3AF6228A33
:103E1000838982E4738FE98EEA8DED8CEE000000D9
:103E2000000000000000AFE9AEEAADEDACEE22C547
:103E3000F0F8A3E028F0C5F0F8E5821582700215CD
:103E400083E038F0220000000000000000000000C5
:103E500022787FE4F6D8FD75814D023E9802340049
:103E6000E493A3F8E493A34003F68001F208DFF49F
:103E70008029E493A3F85407240CC8C333C4540F17
:103E80004420C8834004F456800146F6DFE4800BEA
:103E90000102040810204080903EDDE47E01936022
:103EA000BCA3FF543F30E509541FFEE493A3600117
:103EB0000ECF54C025E060A840B8E493A3FAE49381
:103EC000A3F8E493A3C8C582C8CAC583CAF0A3C82F
:103ED000C582C8CAC583CADFE9DEE780BE430006E3
:103EE00002065141004F0245000ABADA5513374520
:0B3EF0000000E7E7E7E7E7013D1000F6
:00000001FF
