:1000000002065EE5BE421FE51F30E505751E018054
:1000100008E51F30E403E4F51E531FCFAF1E221284
:10002000091F220207D68B498A4A894BAB49AA4A43
:10003000A94B1204786013054BE54B7002054A1476
:10004000F9120478FF12004B80E2228F1D1208A1E2
:10005000AF1D2202078AE518240CF8E6051822785D
:1000600009300702780CE475F0011204F2020478FA
:100070002000EB7F2ED2008018EF540F2490D43450
:1000800040D4FF30040BEF24BFB41A0050032461A6
:10009000FFE51960021519051CE51C7002051B30EF
:1000A000070D7809E475F0011204F2EF0204BE02B4
:1000B000004B7403D2078003E4C207F5188B098A4A
:1000C0000A890BE4F519F51BF51CE51960077F207B
:1000D00012009180F5751AFFC201C200C202C2036C
:1000E000C205C206C20812005FFF700D3007057F0F
:1000F000001200A2AF1CAE1B22B4255FC2D5C20401
:1001000012005FFF24D0B40A00501A75F00A781963
:1001100030D50508B6FF0106C6A426F620D5047022
:1001200002D20380D924CFB41A00EF5004C2E5D222
:10013000040202A2D20180C6D20080C0D20280BCDA
:10014000D2D580BAD20580B47F2012009120020758
:100150007401B5190040F1120056FF12009102001F
:10016000CAD208D2068095120056FB120056FA1227
:100170000056F94A4B700679737A037BFF20022EF2
:10018000E519602A7E008E82758300120491600654
:100190000EEE651A70F0C2D5EBC0E0EAC0E0E9C02F
:1001A000E0EE1202E9D0E0F9D0E0FAD0E0FB120470
:1001B00078FF60AAEBC0E0EAC0E0E9C0E01200917D
:1001C000D0E02401F9D0E03400FAD0E0FBE51A04D5
:1001D00060DCD51AD980877BFF7A0279E5D202806C
:1001E0009C791080027908C206C2088008D2D579AD
:1001F0000A8004790AC2D5E51A047002F51AE4FAF5
:10020000FDFEFF120056FC7B08200113120056FD74
:100210007B1030000A120056FE120056FF7B20ECC5
:100220003382D592D55013C3E43000069FFFE49E7D
:10023000FEE42001039DFDE49CFCE4CBF8C201EC4C
:10024000700CCFCECDCCE824F8F870F38017C3EF54
:1002500033FFEE33FEED33FDEC33FCEB33FB994023
:1002600002FB0FD8E9EB300105F8D0E0C448B20139
:10027000C0E00AEC4D4E4F78207B0070C2EAB51A00
:100280000040BCC0E01202EBD0F0D0E0200104C47A
:10029000C0E0C4B201C0F012007AD0F0D5F0EB0299
:1002A00000CA12050201675301E15801384C0134BC
:1002B0004201E54F01ED4401ED49014D4301F35584
:1002C00001D74601D74501D747039350013C2D0183
:1002D000402E01632B014423016120037C2A00FC92
:1002E000480000015B3F3F3F00790AA2D52003147C
:1002F000300509B910020404B9080104A2D520068A
:10030000025001042002689202B519005034C0E086
:100310007F203003197F30A20272067205500F123F
:100320000342C202C206C205C2087F30800F3005F8
:1003300003E9C0E0120091300503D0E0F9D0E0B548
:1003400019CC3005177F30B9100C1200917F58304E
:1003500004077F788003B908031200913002057FFB
:100360002D0200917F202008F87F2B2006F3229297
:100370000280CF286E756C6C2900D20112005630B5
:1003800001F8C201781930D50108F60200FC2D50A1
:100390004349581200562403B405004001E4900379
:1003A0008E93120082743A120082D20375190402ED
:1003B00001E18B228A238924E4F528F527F526F527
:1003C00025F529120960AB22AA23A924EF1204BE45
:1003D000120960AB22AA23A924900001EF1204D0D5
:1003E000120960AB22AA23A924900002EF1204D0C4
:1003F000AB22AA23A924120478FF3395E0F50C8FD1
:100400000D900001120491FF3395E0F50E8F0F90CF
:100410000002120491FF3395E0F5108F117BFF7AF3
:100420000579CB1200B87BFF7A0579E0AFBF750C78
:10043000008F0D1200B8AB22AA23A924900001124C
:100440000491FF3395E0F50C8F0D7BFF7A0579F071
:100450001200B87BFF7A067901A2C2E433750C0062
:10046000F50D1200B87BFF7A06791085270C8528D8
:100470000D1200B8E4F52922BB010689828A83E0C7
:10048000225002E722BBFE02E32289828A83E493A0
:1004900022BB010CE58229F582E5833AF583E0224F
:1004A0005006E92582F8E622BBFE06E92582F8E23D
:1004B00022E58229F582E5833AF583E49322BB01A4
:1004C0000689828A83F0225002F722BBFE01F322C2
:1004D000F8BB010DE58229F582E5833AF583E8F062
:1004E000225006E92582C8F622BBFE05E92582C80E
:1004F000F222FAE6FB0808E6F925F0F618E6CA3A11
:10050000F622D083D082F8E4937012740193700DB8
:10051000A3A393F8740193F5828883E47374029320
:100520006860EFA3A3A380DFE4F508D2817593D7B9
:100530007594FE7F0412081F1209DFBF02FAD2AFC2
:100540007D01E4FF120865D2BAE52B60687BFF7A73
:10055000067920AF2EEF3395E0F50C8F0DAF2FEF1E
:100560003395E0F50E8F0FAF30EF3395E0F5108F38
:10057000111200B87BFF7A0579E0AFBF750C008FD0
:100580000D1200B87BFF7A0579F0AF2FEF3395E0BD
:10059000F50C8F0D1200B87BFF7A067901A2BAE440
:1005A00033750C00F50D1200B87BFF7A06793B120B
:1005B00000B8E4F52BE5BED39400408D7BFF7A06AE
:1005C000794D85BE0C1200B8020549646174612042
:1005D00069733A202564202564202564200D0A00D3
:1005E00073646174612069733A202564200D0A00E8
:1005F0007332646174612069733A202564200D0AA6
:1006000000735049462069733A202564200D0A0082
:10061000636F756E742069733A202564200D0A009B
:10062000646174612069733A202530325820253086
:1006300032582025303258200D0A00696E746572D8
:1006400075707420686F6F6B696E672100646174E8
:10065000612069733A2025303258200D0A00787FD6
:10066000E4F6D8FD75815B0206A5020528E493A394
:10067000F8E493A34003F68001F208DFF48029E454
:1006800093A3F85407240CC8C333C4540F4420C8A0
:10069000834004F456800146F6DFE4800B01020437
:1006A00008102040809009A1E47E019360BCA3FF64
:1006B000543F30E509541FFEE493A360010ECF546C
:1006C000C025E060A840B8E493A3FAE493A3F8E45B
:1006D00093A3C8C582C8CAC583CAF0A3C8C582C8C7
:1006E000CAC583CADFE9DEE780BEE4F5FCEF14602B
:1006F0000F14601114601314601524047016801711
:1007000043FC10801243FC20800D43FC30800843E2
:10071000FC40800343FC50ED14600A14600C14602C
:100720000E2403800D43FC02800843FC0480034335
:10073000FC06EB700343FC0843FC01228B338A3434
:100740008935A2AF92D5C2AFD2FD8E478F48E5372B
:100750001537AE36700215364E6028AB330535E5D9
:1007600035AA347002053414F9120478FF0548E5FF
:1007700048AC477002054714F5828C83EFF030FCDB
:10078000CD80FBC2FDA2D592AF22C0E0C0F0C083F5
:10079000C082C0D075D000C000C001C002C003C07C
:1007A00004C005C006C007752B017FFF1209F28F38
:1007B0002E1209F28F2F1209F28F30D007D006D0F7
:1007C00005D004D003D002D001D000D0D0D082D048
:1007D00083D0F0D0E032C0E0C0D075D000C000308F
:1007E0009819C298E53FC394085010744C2543F8FB
:1007F000A699E543045407F543053F30991AC29979
:10080000E540D39401400F74542542F8E6F599E58C
:1008100042045407F5421540D000D0D0D0E032C297
:10082000ACE4F542F544F540F541F543F53FD29C83
:10083000C29FD29E43878043D880EF24FC6013245C
:10084000FE60091470127C037DF780107C037DF339
:10085000800A7C037DCC80047C037DE68DAA8CBA63
:10086000C299D2AC2275BCF0D2CE43A601EF14607F
:100870000A14600C14600E2403800D43BC0280082F
:1008800043BC04800343BC06ED5401F433333354BA
:10089000F842BC43BC01E5BE30E00585BF0980F6E7
:1008A00022E540D3940850F9C2ACE54070048F991A
:1008B000800E74542544F8A607E544045407F54413
:1008C0000540D2AC22E53E153EAC3D7002153D4CD4
:1008D00060168F828E83E01204BE0FBF00010E747B
:1008E0000129F9E43AFA80DD22A2AF92D5C2AFD253
:1008F000FD8E458F468F828E83EDF020FCFDC2FD7C
:10090000A2D592AF227FFA7E001209107FFA7E00F4
:100910000000000000EF1F70011E144E70F222E56F
:100920003F60FCC2AC744C2541F8E6FFE54104543D
:1009300007F541153FD2AC22AD07AC0612090512EE
:100940000905ED1D70011C144C70F122A2AF92D567
:10095000C2AFD2FD8FFA20FCFDC2FDA2D592AF221C
:10096000E51F20E006E5BE421F80F5531FFEAFBF26
:1009700022EF5401C4333354C0FFE5A354B74FF5FD
:10098000A322EF6009E5A3448054F7F5A32253A303
:100990007722EF5403C454F0FFE5A354C74FF5A3E7
:1009A00022022C0000012A00011F00011E0100E5A7
:1009B000BE421FE51F7F0030E0027F0122EF540797
:1009C000FFE5A354F04FF5A322EF5407FFE5AD5424
:1009D000F84FF5AD228FFFE5FE30E2FBAFFF22E5D9
:1009E000AD7F0130E3027F0222E5407F0070027F8D
:1009F0000122120A0C120960228F828E83E0FF22EC
:100A0000E5AD5480FF22E5AD5440FF228FBF22AFF9
:020A10003F2283
:00000001FF
