:10000000020D80E4FFFE1204C1600C0FEF70010EC0
:1000100009E970F20A80EF22220000000000EF1FC1
:0A00200070011E144E70F2228004DD
:10002B000220B875C81175CBFA75CACA75CDFA75A9
:10003B00CCCAD2AD22D2B9D2BDC20BA20C92EA224B
:10004B000228E743E22022121FD5122EFCE4900176
:0C005B00A8F0C20480DFAFE1228FDA229F
:10006B000220E80203B6E86480F8E933E833601154
:10007B000460F0ED33EC337009E8FCE9FDEAFEEBCC
:10008B00FF220460DED3EB9FEA9EE99DE8C2E78C7A
:10009B00F0C2F795F0400CE8CCF8E9CDF9EACEFACE
:1000AB00EBCFFB12038185D0F05804700320D5B33E
:1000BB00E80470075002B2D50203C092D5EC04607D
:1000CB00F7E4CCC0E0C398F8603B94186008400D8F
:1000DB00D0E0FB020398E4FBFAC9FC8028E830E48B
:1000EB0006E4C9FBE4CAFCE830E305E4C9CACBFC6F
:1000FB00E854076010F8C3E913F9EA13FAEB13FBA2
:10010B00EC13FCD8F130F52FC3E49CFCEF9BFFEE16
:10011B009AFEED99FDD0E0FBEF4E4D4C701222DBB9
:10012B00030203BDEC2CFCEF33FFEE33FEED33FD8E
:10013B00ED30E7EB020398EF2BFFEE3AFEED39FDC6
:10014B00D0E0FB50130BBB00030203C0ED13FDEE1D
:10015B0013FEEF13FFEC13FC020398EC4D6011E858
:10016B00497017ED33EC3304600DE4FCFFFEFD2208
:10017B00E933E8330470F80203B6120381580460C4
:10018B0009E4CC248150062850090203C0284003FF
:10019B000203BDC0E0EB4A7044B98006D0E0FB021D
:1001AB0003ACEF4E701CBD8008EBFFEAFEE9FD804F
:1001BB00EBE98DF0A4FEE5F002024FE9CDF9EAFE82
:1001CB00EBFFEF89F0A4FCE5F0CE89F0A42EFFE461
:1001DB0035F0CD89F0A42DFEE435F08067EF4E703D
:1001EB0005BD80D780C3EF8BF0A4ACF0EE8BF0A4F1
:1001FB002CFCE435F0F8EF8AF0A42CE5F038FCE4A5
:10020B0033CB8DF0A42CFCE5F03BF8EE8AF0A42C5C
:10021B00FCE5F038F8E433CF89F0A42CFCE5F0389A
:10022B00CF3400CE89F0A42FFFE5F03EFEE433C9B6
:10023B008DF0A42EFEE5F039CD8AF0A42FFFE5F06A
:10024B003EFEE43DFD33D0E0FB50070BBB000F023D
:10025B0003C0EC2CFCEF33FFEE33FEED33FD02035A
:10026B00980203C0EC5D046005E8590470030203B7
:10027B00B6120381580460F6EC4860F2EC7004FD92
:10028B00FEFF22C860DB2481C85009C3986002506E
:10029B00060203BD9850CAF582E9294B4A7005AB9B
:1002AB00820203AC75F0007C1A7880C3EF9BEE9A48
:1002BB00ED99400DC3EF9BFFEE9AFEED99FDE842E1
:1002CB00F0DC23ACF0D0E0FFD0E0FED0E0FDAB8261
:1002DB0020E7101BEB60BAEC2CFCEF33FFEE33FE88
:1002EB00ED33FD020398E803F830E705C0F075F035
:1002FB0000EF2FFFEE33FEED33FD40B830E7C28049
:10030B00AA75F020800E75F010800575F0087D0041
:10031B007E007F003392D530D5031205C5EC3340F8
:10032B0010EF33FFEE33FEED33FDEC33FCD5F0ED88
:10033B0022E5F0247EA2D513CC92E7CDCEFF22EDA1
:10034B00D2E7CD33EC3392D524814006E4FFFEFD9A
:10035B00FC22FCE4CFCECDCC24E0501174FF80ED19
:10036B00C3CC13CCCD13CDCE13CECF13CF0470F0A3
:10037B0030D5DE0205C5E9D2E7C933E833F892D5AB
:10038B00EDD2E7CD33EC33FC5002B2D522EC30E7A3
:10039B00100FBF000C0EBE00080DBD00040BEB6070
:1003AB0014A2D5EB13FCED92E7FD2274FFFCFDFECE
:1003BB00FF22E480F8A2D574FF13FC7D80E480EF6C
:1003CB00E709F608DFFA8046E709F208DFFA803E14
:1003DB0088828C83E709F0A3DFFA8032E309F60801
:1003EB00DFFA8078E309F208DFFA807088828C8369
:1003FB00E309F0A3DFFA806489828A83E0A3F6081D
:10040B00DFFA805889828A83E0A3F208DFFA804CF6
:10041B0080D280FA80C680D4806980F280338010CD
:10042B0080A680EA809A80A880DA80E280CA803336
:10043B0089828A83ECFAE493A3C8C582C8CCC583AE
:10044B00CCF0A3C8C582C8CCC583CCDFE9DEE7807E
:10045B000D89828A83E493A3F608DFF9ECFAA9F0FD
:10046B00EDFB2289828A83ECFAE0A3C8C582C8CC53
:10047B00C583CCF0A3C8C582C8CCC583CCDFEADE6C
:10048B00E880DB89828A83E493A3F208DFF980CCCE
:10049B0088F0EF60010E4E60C388F0ED2402B404C7
:1004AB000050B9F582EB2402B4040050AF2323456E
:1004BB00822390041B73BB010689828A83E022503E
:1004CB0002E722BBFE02E32289828A83E49322BBEA
:1004DB00010CE58229F582E5833AF583E02250068B
:1004EB00E92582F8E622BBFE06E92582F8E222E541
:1004FB008229F582E5833AF583E49322BB010689D1
:10050B00828A83F0225002F722BBFE01F322F8BB52
:10051B00010DE58229F582E5833AF583E8F0225057
:10052B0006E92582C8F622BBFE05E92582C8F22220
:10053B00EF8DF0A4A8F0CF8CF0A428CE8DF0A42ED4
:10054B00FE22BC000BBE0029EF8DF084FFADF02224
:10055B00E4CCF875F008EF2FFFEE33FEEC33FCEE36
:10056B009DEC984005FCEE9DFE0FD5F0E9E4CEFD29
:10057B0022EDF8F5F0EE8420D21CFEADF075F008FC
:10058B00EF2FFFED33FD4007985006D5F0F222C355
:10059B0098FD0FD5F0EA22C5F0F8A3E028F0C5F0DE
:1005AB00F8E582158270021583E038F022EF2BFFFD
:1005BB00EE3AFEED39FDEC38FC22C3E49FFFE49EDE
:1005CB00FEE49DFDE49CFC22EB9FF5F0EA9E42F0DD
:1005DB00E99D42F0E89C45F022E0FCA3E0FDA3E09E
:1005EB00FEA3E0FF22E0F8A3E0F9A3E0FAA3E0FB0F
:1005FB0022ECF0A3EDF0A3EEF0A3EFF022A4258202
:10060B00F582E5F03583F58322E0FBA3E0FAA3E066
:10061B00F922F8E0FBA3A3E0F925F0F0E5821582BF
:10062B0070021583E0FA38F022EBF0A3EAF0A3E9AD
:10063B00F022E3F5F009E208B5F06D606B80F3E3AF
:10064B00F5F009E608B5F060605E80F387F009E627
:10065B0008B5F054605280F487F009E208B5F04811
:10066B00604680F488828C8387F009E0A3B5F0386C
:10067B00603680F488828C8387F009E493A3B5F00D
:10068B0027602580F388828C83E3F5F009E0A3B51E
:10069B00F016601480F388828C83E3F5F009E49301
:1006AB00A3B5F004600280F2020768808580E780C2
:1006BB008E80D2803C8015806C807E809B80B58044
:1006CB008B80A1804F8070803A02077489828A8365
:1006DB00ECFAE493F5F0A3C8C582C8CCC583CCE48F
:1006EB0093A3C8C582C8CCC583CCB5F070606E80AF
:1006FB00E189828A83E493F5F0A3E208B5F05E60AA
:10070B005C80F289828A83E0F5F0A3E608B5F04DB0
:10071B00604B80F389828A83E0F5F0A3E208B5F0A1
:10072B003C603A80F389828A83E493F5F0A3E60870
:10073B00B5F02A602880F2805389828A83ECFAE430
:10074B0093F5F0A3C8C582C8CCC583CCE0A3C8C5BC
:10075B0082C8CCC583CCB5F004600280E27FFFB5C4
:10076B00F0020F2240027F012289828A83ECFAE099
:10077B00F5F0A3C8C582C8CCC583CCE0A3C8C5829D
:10078B00C8CCC583CCB5F0D560D380E389828A838E
:10079B00ECFAE0F5F0A3C8C582C8CCC583CCE493D2
:1007AB00A3C8C582C8CCC583CCB5F0B160AF80E21D
:1007BB0088F0ED2402B4040050A3F582EB2402B4BC
:1007CB000400509923234582239006B673E709F65C
:1007DB000870FA8046E709F20870FA803E88828C2E
:1007EB0083E709F0A370FA807EE309F60870FA80BC
:1007FB0076E309F20870FA806E88828C83E309F045
:10080B00A370FA806289828A83E0A3F60870FA806B
:10081B005689828A83E0A3F20870FA804A80D280DC
:10082B00FA80C680D4806580F28031801080A680EB
:10083B00EA809A80A880DA80E280CA803189828A35
:10084B0083ECFAE493A3C8C582C8CCC583CCF0A3D0
:10085B00C8C582C8CCC583CC70E9800D89828A83D8
:10086B00E493A3F60870F9ECFAA9F0EDFB22898268
:10087B008A83ECFAE0A3C8C582C8CCC583CCF0A3AD
:10088B00C8C582C8CCC583CC70EA80DD89828A83D7
:10089B00E493A3F20870F980CE88F0ED2402B4043F
:1008AB000050C4F582EB2402B4040050BA23234554
:1008BB00822390082873A3F8E0C5F025F0F0E582B9
:1008CB00158270021583E0C838F0E8222000202042
:1008DB00202053746F7070656421002020202052FB
:1008EB00756E6E696E6721002020205374617469E8
:1008FB00737469637300202020636C656172656497
:10090B0021004F7065726174696F6E3A00446576B1
:10091B0069636500486F7374004E6F206F662063C8
:10092B0068616E6E656C733A005246206368616E47
:10093B006E656C3A2000545820696E74657276614E
:10094B006C3A0000000000545820504C206C656E2F
:10095B003A0000000000000041434B205458205047
:10096B004C206C656E3A000000545820706970651D
:10097B003A000000000000000000FFFF001B000514
:10098B0000054445564943455F4D4F44453A0000E9
:10099B0000000054585F54494D454F55543A0000E0
:1009AB000000000054585F4154542E2E534E435FA9
:1009BB004F4E3A000054585F4154542E2E534E4321
:1009CB005F4F46463A00484F53545F4D4F44453AAC
:1009DB000000000000000052585F50495045533A48
:1009EB00000000000000000052585F54494D454F75
:1009FB0055543A00000000000054585F4D315F43DE
:100A0B0059434C455F5045523A0052585F5045523E
:100A1B00494F443A0000000000000052585F504517
:100A2B0052494F445F4D4F443A00000052585F43C8
:100A3B00485F484F4C445F5045523A00004352596F
:100A4B0050545F50495045533A00000000004F5539
:100A5B00545055545F504F5745523A0000000050C8
:100A6B00444F574E5F49444C455F454E3A0000009A
:100A7B004D41585F53594E435F504552494F443A8D
:100A8B0000434F4C5F43485F53575F4C494D3A000F
:100A9B0000002D31382064426D0000000000000082
:100AAB000000002D31322064426D00000000000078
:100ABB00000000002D362064426D00000000000095
:100ACB000000000000302064426D000000000000B8
:100ADB000000000000005458207061796C6F616455
:100AEB00733A0000000000545820617474656D70F7
:100AFB0074733A000000000041766720545820615F
:100B0B007474656D7074733A004D6178205458207D
:100B1B00617474656D7074733A0054582063682067
:100B2B0073776974636865733A000054582062796F
:100B3B007465733A000000000000000052582070EA
:100B4B0061796C6F6164733A0000000000525820A9
:100B5B0062797465733A0000000000000000605574
:100B6B00004C2A204D6F64652073656C656374209F
:100B7B00202A002A205465737420736574757020C5
:100B8B0020202A002A20537461746973746963737B
:100B9B002020202A002A20477A6C6C207061726119
:100BAB006D7320202A002A204368616E6E656C20CD
:100BBB00636F6E66202A004800E60008000A0000FA
:100BCB000000602000C600000000000000000000D4
:100BDB00000000000000000000000000000000000A
:100BEB000000000000004100C4004100EE01420083
:100BFB00A100004100C3005000A300000000000052
:100C0B00000000000000000000005000B3000000D6
:100C1B000000000000000000000000000041001078
:100C2B00FF41001100510012000000000000000005
:100C3B000000000000000000005100230000000035
:100C4B000000000000000000000000000041003424
:100C5B000041003500410036005000370317283D96
:100C6B004B000000000000000000000042004700A5
:100C7B0005420049000541004B005001670317284E
:100C8B003D4B00000000000000000000004501A1EA
:100C9B00010306090C410162FF4101A9004101ACAE
:100CAB00004201AD000042017700004101E000006D
:100CBB00900121EBF0A3EAF0A3E9F0E4900129F015
:100CCB00A3F0D3900128E09400900127E064809476
:100CDB00805003020D74900121E0FBA3E0FAA3E026
:100CEB00F9900129E0FEA3E0F5828E831204DA600D
:100CFB001090012AE004F070DD900129E004F080EF
:100D0B00D5900124E0FBA3E0FAA3E0F91204C16043
:100D1B003E900124A3E475F0011208C1A9F0FA1268
:100D2B0004C1FF900121E0FBA3E0FAA3E0F99001DD
:100D3B0029E475F0011208C185F082F583EF1205E5
:100D4B001990012774FFF5F01205A245F070B290CF
:100D5B000121E0FBA3E0FAA3E0F9900129E0FEA357
:100D6B00E0F5828E83E4120519900121E0FBA3E0EC
:100D7B00FAA3E0F922787FE4F6D8FD758121020D04
:100D8B00C7020E52E493A3F8E493A34003F6800149
:100D9B00F208DFF48029E493A3F85407240CC8C3AA
:100DAB0033C4540F4420C8834004F456800146F6E4
:100DBB00DFE4800B0102040810204080900B69E4F3
:100DCB007E019360BCA3FF543F30E509541FFEE442
:100DDB0093A360010ECF54C025E060A840B8E49304
:100DEB00A3FAE493A3F8E493A3C8C582C8CAC58346
:100DFB00CAF0A3C8C582C8CAC583CADFE9DEE780CB
:100E0B00BE2E2E5C2E2E5C2E2E5C2E2E5C67617AF7
:100E1B00656C6C5C636F6D6D6F6E5C677A6C6C2E62
:100E2B0063000206080A0C0004FFFFFFFFFFFF0030
:100E3B0001003FFFFFFFFFFFFFFFFFFFFF003F0032
:100E4B00030001FFFFFFFF12285912152012002883
:100E5B00D180D2AFE4FF1216771228239000F6EF61
:100E6B00F0F107AE079000F6E0FF7003EE60EA12B8
:100E7B00167780E5229001E0E0700B7F02122EB115
:100E8B009001E07401F07F38D1B87F39D1B87F146D
:100E9B00D1B87F08122E5E7F5FD1B87F6AD1B87F41
:100EAB00C87E00D1DD122E89122E397F06AB077F4B
:100EBB000A7E00D1DDE49000F7F0A3EBF07B017A22
:100ECB000079F79001617402F07F3E1219827F0A5C
:100EDB007E00AD07AC067FFA7E001200197FFA7E0A
:100EEB00001200197FFA7E001200197FFA7E0012A1
:100EFB000019ED1D70011C144C70DB22E49000F7FF
:100F0B00F09000EEE070030210CB122D2290011C2A
:100F1B00EFF06003021173900010E06401600302B4
:100F2B0010709000F704F0122CB9EF70030210212F
:100F3B009000C61205E4EF2401FFE43EFEE43DFD04
:100F4B00E43CFC9000C61205FC9000DA1205F09010
:100F5B0000E8E0FEA3E0FFE4FCFD1205B89000DA28
:100F6B001205FC122CDA900118EEF0A3EFF09000B2
:100F7B00CA1205F0900118E0FEA3E0FFE4FCFD129D
:100F8B0005B89000CA1205FC9000CA1205E4E412E1
:100F9B00030CE4FBFA79C87842120166C004C00561
:100FAB00C006C0079000C61205E4E412030CA804A7
:100FBB00A905AA06AB07D007D006D005D0041202AC
:100FCB006F12034AE4FCFD9000CE1205FC90011851
:100FDB00E0FEA3E0FFE4FCFD9000D21205F0C3128B
:100FEB0005D35011900118E0FEA3E0FFE4FCFD9047
:100FFB0000D21205FC9000D61205F0C001C002C051
:10100B0003122CFEE4FCFDD003D002D0011205B874
:10101B009000D61205FC7B017A01791A90012012FF
:10102B0006347A01099001231206347A0079F831DB
:10103B0079EF60319000DE1205E4EF2401FFE43E0E
:10104B00FEE43DFDE43CFC9000DE1205FC9000E26A
:10105B001205F090011AE0FFE4FCFDFE1205B890BA
:10106B0000E21205FC9000C4E0604BC2AF9000E6BA
:10107B00E0FEA3E0FFC39000A2E09F9000A1E09EE2
:10108B004032E49000C5F09000A1F0A3F0D2AF90F5
:10109B0000C5E060FA7B017A0079F89000E8E0A3E4
:1010AB00E0FD9000ECE0A3E0900121F051269001CF
:1010BB001C7401F0D2AF90011CE0900010F0217372
:1010CB007B017A01791A9001201206347A0109907A
:1010DB0001231206347A0079F83179EF700221730B
:1010EB009000F77401F09000DE1205E4EF2401FF8D
:1010FB00E43EFEE43DFDE43CFC9000DE1205FC907A
:10110B0000E21205F090011AE0FFE4FCFDFE12056F
:10111B00B89000E21205FC9000EAE0A3E090011AFF
:10112B00F0E0FD60437B017A0079F8A3E0900121A8
:10113B00F0122B34EF60319000C61205E4EF24015E
:10114B00FFE43EFEE43DFDE43CFC9000C61205FCD2
:10115B009000DA1205F090011AE0FFE4FCFDFE129C
:10116B0005B89000DA1205FC9000F7E0FF22900121
:10117B001D12063490011D120614E94A4B6003D36D
:10118B008001C3400D7BFF7A0E790C7FAE7E03127C
:10119B000018121FD530047D1227DD900127EFF0C8
:1011AB00D39420506D90011D12061412323590010C
:1011BB00A8E0D394004014E014F0E0247BF582E423
:1011CB003401F583E0900126F08005EE900126F0C6
:1011DB001231B9EF6002C204900123120614E94ADE
:1011EB004B600F900126E0FF900123120614EF12C3
:1011FB000507900120120614E94A4B600F90012756
:10120B00E0FF900120120614EF1205071200407F39
:10121B0001221200521200407F002290011D120683
:10122B0034900120EDF0D3941B5005E09400500D49
:10123B007BFF7A0E790C7FA87E0212001890012199
:10124B00E0D3940550028001C3400D7BFF7A0E79E9
:10125B000C7FA97E02120018900120E0FF6005D3DD
:10126B00941B40037F0022900120E0900179F090C5
:10127B0001AFE0B402031227BB121FD5900163E04C
:10128B00FF900121E0FE6F6007900163EEF0D20149
:10129B009001AFE0600261E72001026158C201D208
:1012AB0002FF12247F7D01E4FF12237B900121E0DA
:1012BB0070167B017A0179A17F0691DF7B017A01A0
:1012CB0079A1E4FF91DF61587B017A0179227F01DB
:1012DB00910A900129EFF0900121E0FF6401604F2A
:1012EB00EF24FD601914602714603580007B017AB0
:1012FB000179227F02910A900129EFF080317B0165
:10130B007A0179227F03910A900129EFF080207BEB
:10131B00017A0179227F04910A900129EFF0800F65
:10132B007B017A0179227F05910A900129EFF07BED
:10133B00017A017922E4FF91DF7B017A0179227F27
:10134B000691DF900121E0FF7D01122D28E4900131
:10135B0064F0A3F09001A6F0A3F09001AAF0A3F023
:10136B00122F0590011D120614900120E0FD122C86
:10137B00A4C200900181E0FFA3E0900127CFF0A36E
:10138B00EFF07F01122257300329900127E0FEA3D3
:10139B00E0FFEE700AEF24FD600B14600E8000E49A
:1013AB00FF9143802C7F01914380267F02914380E4
:1013BB0020801E900127E0FEA3E0FFEE700FEF24CC
:1013CB00FE600424027006E4FF914380047F0191C8
:1013DB00439001AF7401F0120040FF2220011A125A
:1013EB002CADEF701490011D120614900120E0FD3E
:1013FB00122CA41200407F01221200407F00229089
:10140B00012B12063490012AEFF014600824FB60C4
:10141B00042406700C90012AE0FFA3120614022F7D
:10142B002190012AE0240AFF12230B90012B1206B4
:10143B0014EF1205077F01229001DCEFF0122D82D1
:10144B0012277D9001DCE0146012146020146027D9
:10145B008000900166E09001DDF0803590017EE028
:10146B00FDE4FF122D289001DDEFF08024122E12E7
:10147B009001DDEFF0801A900166E0049001DDF041
:10148B00E0FF90017EE0FEEF8EF0849001DDE5F051
:10149B00F0900166E0FF9001DDE0FE6F601E9001B1
:1014AB0066EEF0E02467F582E43401F583E0FF1289
:1014BB0027539001A6E475F0011205A2300303D265
:1014CB000822D206D2EAD2E8D20C7F0A7E001200A2
:1014DB0019C2E82290012B12063490012AEFF01466
:1014EB00600A24FB501C6004240670281227E1902C
:1014FB000132EFF090012AE0242AFFA31206140216
:10150B002BB290012AE0240AFFA31206141204C185
:10151B00FD1222EB2278F77C007D017BFF7A0E799E
:10152B002D7E007F0512049B121FD5C2E8A20B92E1
:10153B00EAC20C7F011232047F011231D17FFF12FC
:10154B0031C3E4900166F090017E7405F0C209C2CC
:10155B000AE4900163F0C208D201D202C206D200A3
:10156B0090017FF0A3F0C203C204C2059001A8F062
:10157B007B017A0179A1FF91DF7B017A0079F77FFB
:10158B000191DF9000F77403F07B017A0079F77F0C
:10159B000291DF9000F77404F07B017A0079F77FFA
:1015AB000391DF9000F77405F07B017A0079F77FE8
:1015BB000491DF9000F77406F07B017A0079F77FD6
:1015CB000591DF900166E02467F582E43401F58331
:1015DB00E0FF122753900181E4F0A37402F0E4A31F
:1015EB00F0A3F0A3F0A37402F0A3E4F0A37423F030
:1015FB00E4A3F0A3F0A3F0A3743FF0E4900197F001
:10160B00A3F090018DF0A3F0A3F0A37464F0A37486
:10161B0003F0A374F0F0A37401F0A3749AF0E4A3A5
:10162B00F0A3F0900199F0A37403F0E4A3F0A3F0FE
:10163B00A3F0A37496F0A3E4F0A37432F090019995
:10164B00E0A3E0FF122A757F011231717F02123184
:10165B00087F0512315C123150122EFC122F057FC0
:10166B00F07E0312288D1222730200409000F7EFD8
:10167B00F054036065E030E113900011E0FF7E0051
:10168B007D047C00121C77900011EFF09000F7E0C6
:10169B0030E013900011E0FF7E007D047C00121EF1
:1016AB007B900011EFF0900011E075F011A4244C29
:1016BB00F9740035F0FA7B01C003C002C0017BFF57
:1016CB007A0879D790011D120634D001D002D003CD
:1016DB001218207F587E02120EDD9000F7E030E7E3
:1016EB00509000C4E06021E4F01227BB7BFF7A0826
:1016FB0079D790011D1206347A0879D91218207FF8
:10170B00587E02120EDD80299000EEE07003122449
:10171B00099000C47401F07BFF7A0879D790011D02
:10172B001206347A0879E61218207F587E02120EC0
:10173B00DD9000F7E030E6287BFF7A097901900114
:10174B001D1206347A0879F31218207F587E021284
:10175B000EDDE4FF7F209000C6E4F0A3DFFC7F08E2
:10176B00900011E014602D14606414604414607BCD
:10177B00240460030218107B017A01790990011D82
:10178B001206349000F7E0900120F07A0079F812FD
:10179B0019CD80717B017A01790990011D120634F4
:1017AB009000F7E0900120F07A0079F8121A34805B
:1017BB00547B017A01790990011D1206349000F7D0
:1017CB00E0900120F07A0079F8121B3E80377B0104
:1017DB007A01790990011D1206349000F7E090010F
:1017EB0020F07A0079F8121FE9801A7B017A0179CF
:1017FB000990011D1206349000F7E0900120F07A59
:10180B000079F891877B017A01790990011D120605
:10181B00347A0079F890011A120634120003900101
:10182B0020EFF090011D120614120003900121EF1E
:10183B00F078227C017D0190011A1206141208A483
:10184B0078337C017D0190011D1206141208A490BF
:10185B000120E0FFC39410501574222FF582E4345D
:10186B0001F5837420F0900120E004F080E1E49016
:10187B000132F0900121E0FFC39410501574332F07
:10188B00F582E43401F5837420F0900121E004F03B
:10189B0080E1E4900143F078127C007D017B017ABA
:1018AB000179221207BBEF601D78127C007D017B52
:1018BB00017A0179221208A47B017A007912E49053
:1018CB000148F0FD310978237C007D017B017A0111
:1018DB0079331207BBEF602578237C007D017B01F8
:1018EB007A0179331208A47B017A007923E4900101
:1018FB0048F07D0131097F057E00120EDD2290013B
:10190B0044120634ED7003FD80027D40900148E0E7
:10191B00D3940F40037410F0E490015BF0900148F6
:10192B00E02D248090015CF07B017A01795B9001C2
:10193B00617402F07F3E3182E4FF90014412061481
:10194B008F827583001204DAFE744A2FF582E43419
:10195B0001F583EEF00FEFB411E09001497440F004
:10196B00900144120614120003EF04900161F07B06
:10197B00017A0179497F3E90015E120634F1CCC2A7
:10198B00C2EF25E0FF12006430C2FD120061EF20B0
:10199B00E12DE4FE900161E0FFEEC39F5021C2C236
:1019AB0090015E1206148E827583001204DAFF1208
:1019BB00006430C2FD120061EF20E1030E80D502FE
:1019CB00004E90011A120634900120E0FF20E5032F
:1019DB0030E4119000EEE070047F0180027F0090F4
:1019EB0000EEEFF090011A120614A801AC02AD0341
:1019FB007BFF7A09790D1208A49000EEE060159038
:101A0B00011D120614A801AC02AD037BFF7A097904
:101A1B00180208A490011D120614A801AC02AD0314
:101A2B007BFF7A09791F0208A490011A12063490E1
:101A3B000120E030E312900034E0FF7E007D037C58
:101A4B00009177900034EFF0900120E030E212909B
:101A5B000034E0FF7E007D037C00D17B900034EFEF
:101A6B00F0900120E030E53E900034E0FD25E024CD
:101A7B00E6F582E43400F583E0FEA3E0FFED25E01C
:101A8B002485F582E43409F583E493FC740193FD1A
:101A9B009177900034E025E024E6F582E43400F5FC
:101AAB0083EEF0A3EFF0900120E030E43E900034A1
:101ABB00E0FD25E024E6F582E43400F583E0FEA3A7
:101ACB00E0FFED25E02485F582E43409F583E4930A
:101ADB00FC740193FDD17B900034E025E024E6F506
:101AEB0082E43400F583EEF0A3EFF0900034E07560
:101AFB00F011A42441F582E43409AD82FC90011A63
:101B0B00F196900034E025E024E6F582E43400F50C
:101B1B0083E0FEA3E0FF7B017A0079A3D18B9001D8
:101B2B001D120614A801AC02AD037B017A0079A348
:101B3B000208A490011A120634900120E030E3123F
:101B4B00900035E0FF7E007D0F7C00917790003593
:101B5B00EFF0900120E030E212900035E0FF7E00C4
:101B6B007D0F7C00D17B900035EFF0900120E030B1
:101B7B00E529900035E0FF9139C006C0079000358C
:101B8B00E0FF122A9BAC06AD07D007D0069177ACCD
:101B9B0006AD07900035E0FF122922900120E030BE
:101BAB00E429900035E0FF9139C006C0079000355D
:101BBB00E0FF122A9BAC06AD07D007D006D17BAC59
:101BCB0006AD07900035E0FF122922900035E07535
:101BDB00F01190098D120608AD82AC8390011A1298
:101BEB000614F199900035E0FFB40C1E9139900A60
:101BFB009D75F011EF120608EE75F011A42583AD5B
:101C0B0082FC90011D120614E199900035E0FF91C2
:101C1B00397B017A0079A3D18B90011D120614A890
:101C2B0001AC02AD037B017A0079A30208A4AD07D6
:101C3B00EDC3941050028001C3400D7BFF7A0E79E7
:101C4B000C7F177E02120018F1D5EDC394105015BE
:101C5B00120040ED25E02481F582E43401F583E0A8
:101C6B00FEA3E0FF22120040E4FEFF220FBF0001A3
:101C7B000ED3EF9DEE9C4003E4FEFF2290011A125F
:101C8B000634900120E030E31A900049E0FEA3E017
:101C9B00FF900047E0FCA3E0FD9177900049EEF048
:101CAB00A3EFF0900120E030E21A900049E0FEA390
:101CBB00E0FF900047E0FCA3E0FDD17B900049EEF4
:101CCB00F0A3EFF0900120E030E462900047E0FEDB
:101CDB00A3E0FFA3E0B5061BA3E0B507167D107CC0
:101CEB0000D17B900047EEF0A3EFF0A3EEF0A3EF53
:101CFB00F0802A900049E0A3E02437F582E4340019
:101D0B00F583E0FF7E007D7D7C00D17B900049E078
:101D1B00A3E02437F582E43400F583EFF07B017AFE
:101D2B00007937900047E0A3E0FD122AC89001200C
:101D3B00E030E562900047E0FEA3E0FFA3E0B506CC
:101D4B001BA3E0B507167D107C009177900047EE42
:101D5B00F0A3EFF0A3EEF0A3EFF0802A900049E0A0
:101D6B00A3E02437F582E43400F583E0FF7E007DA9
:101D7B007D7C009177900049E0A3E02437F582E465
:101D8B003400F583EFF07B017A007937900047E060
:101D9B00A3E0FD122AC8900047E0FEA3E0FFA3E0FA
:101DAB006E7003A3E06F703A90011A120614A8012B
:101DBB00AC02AD037BFF7A0979241208A49000478B
:101DCB00E0FEA3E0FF7B017A0079A3D18B90011D8C
:101DDB00120614A801AC02AD037B017A0079A302B1
:101DEB0008A478A37C007D017BFF7A097934120863
:101DFB00A4900049E0FEA3E0FF7B017A0079B3D108
:101E0B008B7B017A0079B3120003C374119F90018D
:101E1B0028F0E49E900127F07B017A0079B39001C2
:101E2B00241206347A0079A3120CBB90011A120605
:101E3B0014A801AC02AD037B017A0079A31208A4AC
:101E4B00900049E0A3E02437F582E43400F583E009
:101E5B00FF7E007B017A0079A3D18B90011D1206C6
:101E6B0014A801AC02AD037B017A0079A30208A48C
:101E7B00EF4E7006AE04AF058005EF1F70011E22FA
:101E8B00900121EEF0A3EFF0A3120634E490012BA6
:101E9B00F090012AF09001267427F0A37410F090B3
:101EAB000126E0FCA3E0FDD39400EC94005002E18A
:101EBB0064900121E0FEA3E0FF12054D900128EE96
:101ECB00F0A3EFF04E701C90012BE07016900123E5
:101EDB0012061490012AE0F5827583007420120516
:101EEB0019803F90012B7401F0900126E0FCA3E0D8
:101EFB00FD900121E0FEA3E0FF12054DA312061495
:101F0B0090012AE0FEF582758300EF120519E92E88
:101F1B00F9E43AFA1204C1443012050790012AE0A1
:101F2B0004F0900126E0FCA3E0FDA3E0FEA3E0FF9C
:101F3B0012053BC3900122E09FF0900121E09EF03F
:101F4B00900126E0FEA3E0FF7C007D0A12054D9078
:101F5B000126EEF0A3EFF0C1AA9001231206149014
:101F6B00012AE0F582758300E412051990012BE03C
:101F7B007018900123120614743012050790012378
:101F8B00120614900001E412051922120614900196
:101F9B00211206348D828C83E493601B0DED70014E
:101FAB000C14F582E493FF900121E475F001120605
:101FBB001DEF12050780DD900121120614E40205C6
:101FCB0007E5E220E5FB43E21022A2AFE433FFC2B8
:101FDB00AFC2B9C2BDD20BD2EA24FF92AF2290019D
:101FEB001A120634900120E030E313900036E0FF24
:101FFB007E007D077C00121C77900036EFF090017D
:10200B0020E030E213900036E0FF7E007D077C007D
:10201B00121E7B900036EFF0900036E075F011A4A5
:10202B0024E1F582E4340AAD82FC90011A121F966A
:10203B00900036E0640270439000CE1205E47B0101
:10204B007A0079A3121E8B9000A3E09000B3F0A34B
:10205B00742EF09000A4E09000B5F09000A5E090F5
:10206B0000B6F0E4A3F090011D120614A801AC0217
:10207B00AD037B017A0079B30208A4900036E0250A
:10208B00E025E024C6F582E43400F5831205E47BF9
:10209B00017A0079A3121E8B90011D120614A80160
:1020AB00AC02AD037B017A0079A30208A4C0E0C0A7
:1020BB00F0C083C082C0D075D000C000C2C69000F3
:1020CB00A1E475F0011205A29000C3E0600214F0C8
:1020DB00D000D0D0D082D083D0F0D0E032C0E0C0DE
:1020EB00F0C083C082C0D075D000C000C001C00258
:1020FB00C003C004C005C006C0079000C57401F042
:10210B003128D007D006D005D004D003D002D0019F
:10211B00D000D0D0D082D083D0F0D0E032C2B9C2C0
:10212B00BD122D9B300A0D900191E0FEA3E0FF1232
:10213B00288DC20A9001AFE06402600221F451A61F
:10214B007E009000EFEEF0A3EFF0D20BD2EA9001FD
:10215B0066E06F7001E4602BC2E8A20B92EAC20C3E
:10216B009000EFE0A3E02467F582E43401F583E00F
:10217B00FFF153D2EAD2E8D20C9000EFE0A3E0904B
:10218B000166F091AB9000EFEEF0A3EFF091ABEFA7
:10219B004E700E7F015157D206D2EAD2E8D20C8094
:1021AB000EC2E8A20B92EAC20CC206E4FF51579092
:1021BB000164E475F0011205A290018DE0FEA3E02D
:1021CB00FF9000EFEEF0A3EFF0D39400EE940040FD
:1021DB00569000EFE0FEA3E0FF900165E09F9001B9
:1021EB0064E09E40425173803E9001AFE064017009
:1021FB0036300833F1EA9000EFEEF0A3EFF0300346
:10220B00139000EFE07002A3E0701C51A6900166E2
:10221B00E0B50713D2EAD2E8D20C7F0A7E00120097
:10222B0019C2E8D206C208D3900180E09400900155
:10223B007FE09400400974FFF5F01205A28002C202
:10224B0003C20BA20C92EAD2B9D2BD22EF601220CC
:10225B0007157F0151C17F03AE071FEE70FAD2073E
:10226B0022E4FF51C1C20722C2E8A20B92EAC20CC0
:10227B009001AFE0B402057F0F122D6190019BE03E
:10228B007004A3E064017005FF515780047F015176
:10229B0057C206C209E49001AFF022D39001AEE021
:1022AB0094009001ADE0940040069001ACE0FF2259
:1022BB009001A9E0FF229001DEEFF0E4FF710B909B
:1022CB0001DFEFF09001DEE0B40107A3E04402F080
:1022DB0080079001DFE054FDF09001DFE0FDE4FFAB
:1022EB00C2E9EF2420F5E7E5E630E1FBAFE7AE0509
:1022FB008EE7E5E630E1FB9001E3E5E7F0D2E9227A
:10230B00C2E98FE7E5E630E1FBAFE7E4F5E7E5E6A9
:10231B0030E1FBAFE7D2E92290011BEFF07F0271B6
:10232B000B90011CEFF07F01710B90011DEFF090F2
:10233B00011BE0FF24FA50062407601B8020740168
:10234B00A807088002C333D8FCF4FD90011CE05DA4
:10235B00F0A3E05DF08007E490011CF0A3F0900186
:10236B001CE0FD7F0251EB90011DE0FD7F0141EB75
:10237B0090012AEFF0A3EDF07F02710B90012CEF8F
:10238B00F07F01710B90012DEFF090012AE0FF24FB
:10239B00FA50062407603C80537401A8070880029A
:1023AB00C333D8FCFD90012CE04DF090012BE06085
:1023BB000890012DE04DF0803390012AE0FF74016D
:1023CB00A807088002C333D8FCF4FF90012DE05F0F
:1023DB00F0801990012C743FF090012BE060089075
:1023EB00012D743FF08005E490012DF090012CE05D
:1023FB00FD7F0251EB90012DE0FD7F0141EBF1BB25
:10240B00300257121FD5C202D2017B017A0179A18A
:10241B00E4FF1214DF7FFF7123E490011AF09001A7
:10242B001AE0FFC39406502E74017E00A8070880A3
:10243B0005C333CE33CED8F9FF90018BE05EFEA3FC
:10244B00E05F4E600990011AE0FF7D01717B900106
:10245B001AE004F080C87F01917F7F015157E4900F
:10246B000164F0A3F09001AF7402F0D2EAD2E8D28B
:10247B000C02004090012AEFF0E4FF710B90012B4E
:10248B00EFF090012AE0B40107A3E04401F08007CC
:10249B0090012BE054FEF090012BE0FDE4FF41EBAB
:1024AB00900189E07002A3E0600FD39001AEE0943D
:1024BB00009001ADE094004004E4FEFF2290017710
:1024CB00E07002A3E07003FEFF22900187E0FEA301
:1024DB00E0FF7C017DDC12053B900191E0FCA3E069
:1024EB00FD12054DAB07AA0690017EE0FF7E00AD05
:1024FB0003AC0212053BD3900178E09F900177E08B
:10250B009E5018E0FEA3E0FF12054DAF03C3EB9DF9
:10251B00FFEA9CCF24FFCF34FFFE22900177E0FE31
:10252B00A3E0FFC3900190E09FFF90018FE09EFE20
:10253B0022C2B9C2BDD20BD2EAF1159000F4EFF072
:10254B0030E633D204F140EF24FF9205F1659001A0
:10255B00AFE0B40121900163E0FF9001A8E0FE24FD
:10256B007BF582E43401F583EFF0EEC39402500661
:10257B009001A8E004F09000F4E0FF20E40330E5C4
:10258B001BF137EF04FF9000F1F0FD90017AE0C3EF
:10259B009DF0ED9001AAE48FF01205A29000F4E0FB
:1025AB00FD20E502C1629001AFE064016002C162EF
:1025BB00D20A900179E02412FFE433FEEF7802C3D4
:1025CB0033CE33CED8F9FF900194E02FFF900193D7
:1025DB00E03EFEC3900192E09FFF900191E09EFED2
:1025EB00ED30E60874EC2FFF74FF3EFE12288D12BF
:1025FB002E02F165900181E0FEA3E0FF9000F2EE68
:10260B00F0A3EFF090019DE0FDA3E090017FCDF0F2
:10261B00A3EDF0EF64024E60139000F2E0FEA3E036
:10262B00FF64034E6006EF64044E7002D203F1495F
:10263B00EF6006D2005173801E122D82E49001646C
:10264B00F0A3F09001AAF0A3F0D2EAD2E8D20C7F6B
:10265B000AFE120019C2E89000F4E020E402E10A3D
:10266B00C2E8A20B92EAC20C9000F1E0FF90016469
:10267B00E48FF01205A2900183E0FEA3E0FF90002F
:10268B00F2EEF0A3EFF04E60159000F2E0FEA3E047
:10269B00FFC3900165E09F900164E09E50033009F9
:1026AB00045173805A90017AE0704390019FE0FED1
:1026BB00A3E0FFD39001A7E09F9001A6E09E4010FE
:1026CB00E490017FF0A3F0C2037F01121443802F2B
:1026DB00300314F1EAD3EF9401EE94004002C206EA
:1026EB007F0212144380187F031214438011F17D73
:1026FB00D2EAD2E8D20C7F0A7E00120019C2E8C2DD
:10270B000BA20C92EAD2B9D2BD227D707F0751EB9E
:10271B00EF54709000F5F0E0FFC0077F07710BEFEF
:10272B00540FFED0E04EFF9000F5F0227F08710BA6
:10273B00EF540FFF227F09710BEF5401FF227F171C
:10274B00710BEFC45401FF22EF547FFF9001E2E0C5
:10275B0054804FF0E0FD7F0541EB900195E0FFA326
:10276B00E09001ADCFF0A3EFF0900166E09001ACEB
:10277B00F02290017AE0D3940F40087DFA7C007F21
:10278B000F800C90017AE0C39401FF7DFA7C00ABC3
:10279B0007EC540FFFC454F0FF9001E1E0540F4FCE
:1027AB00F0EB540FFFE054F04FF0E0FD7F0441EBF2
:1027BB009001AFE0B4010BD2099001AFE060128041
:1027CB00F8229001AFE0B40208121FD5517312002A
:1027DB0040227F60610B7F03710BEF2402FF22907D
:1027EB000189E07002A3E0600FD39001AEE094008A
:1027FB009001ADE094004004E4FEFF22900177E0ED
:10280B00FCA3E0FD4C7003FEFF22C3900190E09D02
:10281B00FF90018FE09CFE229000C3E0702DAFA0D3
:10282B00EFF4FF602090004BE0C39407500DC2AD56
:10283B00E004F09000C374AAF080069000C374010A
:10284B00F0D2AD8005E490004BF0227F00227F0296
:10285B0011737F03117F7F01EF6009E5A34480545F
:10286B00F7F5A32253A37722EF5407FFE5AD54F8F6
:10287B004FF5AD22EF25E05406FFE5B354F94FF5C4
:10288B00B322AD07AC06E4FF11DC0F11DCE412033D
:10289B0011E4FBFAF978471201667B007A2479740C
:1028AB00784912026FE4FBFAF9783F1200751203B4
:1028BB004AAC06AD07EF24FFFFEE34FFFEE5B35441
:1028CB0006FD53B3F9EFF5B4EEF5B5AF05EF42B333
:1028DB0022EF600443B3012253B3FE22C0E0C0F0E9
:1028EB00C083C082C0D075D000C000C001C002C080
:1028FB0003C004C005C006C00712253CD007D00694
:10290B00D005D004D003D002D001D000D0D0D082DB
:10291B00D083D0F0D0E032900121EFF0A3ECF0A304
:10292B00EDF09001AFE07003D38001C3400D7BFF4E
:10293B007A0E790C7FE37E01120018900121E0C31F
:10294B00941050028001C3400D7BFF7A0E790C7FEF
:10295B00E47E01120018900121E0701CD39001233A
:10296B00E09404900122E09400400D7BFF7A0E79F5
:10297B000C7FE57E01120018900121E0B4041CD3FA
:10298B00900123E09401900122E09400400D7BFF25
:10299B007A0E790C7FE67E01120018900121E0B4CB
:1029AB00051CD3900123E0943F900122E09400405A
:1029BB000D7BFF7A0E790C7FE77E011200189001D8
:1029CB0021E0B40B1CD3900123E0943F900122E053
:1029DB009400400D7BFF7A0E790C7FE87E0112008C
:1029EB0018900121E0B40C1CD3900123E0940390C8
:1029FB000122E09400400D7BFF7A0E790C7FE97E7B
:102A0B0001120018121FD5900121E0FFC394105042
:102A1B0056A3E0FCA3E0FDEF25E02481F582E4342E
:102A2B0001F583ECF0A3EDF0EF24FB603824FD609F
:102A3B002524FC6025146012240D702BED4C6006D0
:102A4B00ED64014C7021C203801DED64014C7017C5
:102A5B00FF1222578011D20A800D900199E0A3E05A
:102A6B00FF51758002D202020040900124EFF07FEB
:102A7B000612230B900125EFF0900124E05403FF85
:102A8B0025E0FFA3E054F94FF0E0FD7F060222EBB7
:102A9B00900121EFF078227C017D017BFF7A0E798A
:102AAB00327E007F2012049B900121E025E024223E
:102ABB00F582E43401F583E0FEA3E0FF22900121CF
:102ACB00120634121FD59001AFE07003D38001C3FF
:102ADB00400D7BFF7A0E790C7F357E02120018EDCC
:102AEB00D3941050028001C3400D7BFF7A0E790CFA
:102AFB007F367E02120018E4900166F090017EEDA5
:102B0B00F0E0FF7E0078677C017D019001211206C9
:102B1B001412049B900166E02467F582E43401F5FE
:102B2B0083E0FF12275302004090011D12063490E0
:102B3B000120EDF0D394055005E09400500D7BFF80
:102B4B007A0E790C7F8E7E02120018900121E0D351
:102B5B00940550028001C3400D7BFF7A0E790C7FE8
:102B6B008F7E02120018121FD5900120E0FF600A21
:102B7B00D39405500591ADEF60061200407F002203
:102B8B00900121E0FF90011D120614900120E090AE
:102B9B000126F071A61200407F0122EF44A8FF909E
:102BAB000126E0900132F090012F12063490012F94
:102BBB00E0FDC2E98FE7ED7029120614900134E9AC
:102BCB00F0900134E0F8E6FEE004F0E5E630E1FBDE
:102BDB00900133E5E7F08EE7900132E014F070E1FD
:102BEB008196ED6401703E90012F120614AB01909B
:102BFB000134EAF0A3EBF0900134E0FEA3E0F582A0
:102C0B008E83E0FE900134E475F0011205A2E5E637
:102C1B0030E1FB900133E5E7F08EE7900132E014F1
:102C2B00F070D48066ED64FE702C90012F120614A8
:102C3B00900134E9F0900134E0F8E2FEE004F0E5B5
:102C4B00E630E1FB900133E5E7F08EE7900132E0EF
:102C5B0014F070E1803590012F120614900134129C
:102C6B0006349001341206141204C1FE900135E4AF
:102C7B0075F0011205A2E5E630E1FB900133E5E7C3
:102C8B00F08EE7900132E014F070D7E5E630E1FB0F
:102C9B00900133E5E7F0D2E922900132EDF07FA00D
:102CAB0061B27F1712230BEFC4135401FF22900163
:102CBB00AFE064016003D38001C3400D7BFF7A0E4C
:102CCB00790C7F5D7E03120018A200E433FF229083
:102CDB0001AFE064016003D38001C3400D7BFF7A39
:102CEB000E790C7F647E031200189001AAE0FEA3FC
:102CFB00E0FF229001AFE064016003D38001C34089
:102D0B000D7BFF7A0E790C7F6B7E031200189001FE
:102D1B00A6E0FEA3E0FF229001AFE0FF22EFD394E9
:102D2B00004005900162EFF0900162E0FFC4333385
:102D3B00335480FEEFC4333354806EFEE0FFC43354
:102D4B0054806EFEEF54806EFEE0C3134EF0AE0562
:102D5B008EF084AFF022AE071FEED3940040177CA9
:102D6B00007D2DED1DAA0470011CD39400EA940084
:102D7B0040E480EF80E02230030B900185E0A3E07C
:102D8B0090017AF022900187E0A3E090017AF02283
:102D9B00D39001AEE094009001ADE0940040077435
:102DAB00FFF5F01205A2900178E02401FF90017766
:102DBB00E03400FE90018FE0FCA3E0FD12054D9086
:102DCB000177ECF0A3EDF0900189E07002A3E060D5
:102DDB000A900177E07002A3E0701B9001A9E02438
:102DEB0001FFE433FE90017EE0FD7C0012054DAF48
:102DFB00059001A9EDF022900166E09001A9F0E4A5
:102E0B00900177F0A3F022D39001AEE094019001F2
:102E1B00ADE0940040069001ACE0FF229001A9E0E8
:102E2B0004FF90017EE0FEEF8EF084AFF0227F0A6C
:102E3B007E00120EDDE49000F7F0A304F0FB7A00A5
:102E4B0079F790016104F07F3E1219827F0A7E00B0
:102E5B00020EDDAB077F0A7E00120EDDE49000F759
:102E6B00F0EB4470A3F07B017A0079F79001617469
:102E7B0002F07F3E1219827F0A7E00020EDD7F0A6E
:102E8B007E00120EDDE49000F7F0A3740CF07B01D2
:102E9B007A0079F79001617402F07F3E1219827FFC
:102EAB000A7E00020EDDAE077F01D1D9AF06D1E459
:102EBB00E4FFD1CE43A6040FEF600475E1DF22756A
:102ECB00E12022EF700443E2022253E2FD22EF6085
:102EDB000443E2012253E2FE22EF25E025E0FFE569
:102EEB00E254F34FF5E2228FE7E5E630E1FBAFE783
:102EFB0022C2E97FE2D1F2D2E922C2E97FE1D1F22B
:102F0B00D2E922C2E97FFFD1F2D2E922F10EEF54CE
:102F1B000EFFC313FF229001D11206349001D0EFA4
:102F2B00F09001D87401F09001D1E09001D6F0EF50
:102F3B0014600C24FB600824FE601B2408704012F4
:102F4B0027E19001D4EFF0A3F0C2E99001D0E02487
:102F5B000AFFD1F28032F1179001D0EFF0C3940742
:102F6B0050121227DD9001D4EFF0A3F0C2E97F617C
:102F7B00D1F28014E49001D5F09001D4F08009E4F3
:102F8B009001D5F09001D4F09001D6E0FF704C90F9
:102F9B0001D11206149001D9E9F0E4F5E79001D8BC
:102FAB00E070119001D7E0FE9001D9E0F8A606E0A1
:102FBB0004F08005E49001D8F0E5E630E1FB9001E8
:102FCB00D7E5E7F09001D4E014F070CE9001D7E094
:102FDB00FE9001D9E0F8A6060230F8EF64017063A9
:102FEB009001D1120614AF019001D9EAF0A3EFF0D2
:102FFB00E4F5E79001D8E0701E9001D7E0FF900157
:10300B00D9E0FCA3E0F5828C83EFF09001D9E47555
:10301B00F0011205A28005E49001D8F0E5E630E15D
:10302B00FB9001D7E5E7F09001D4E014F070C1906C
:10303B0001D7E0FF9001D9E0FCA3E0F5828C83EF90
:10304B00F001F89001D6E064FE704B9001D11206AE
:10305B00149001D9E9F0E4F5E79001D8E0701190F4
:10306B0001D7E0FF9001D9E0F8EFF2E004F0800522
:10307B00E49001D8F0E5E630E1FB9001D7E5E7F00D
:10308B009001D4E014F070CE9001D7E0FF9001D9FD
:10309B00E0F8EFF280579001D11206149001D9128B
:1030AB000634E4F5E79001D8E0701B9001D7E0FF00
:1030BB009001D9120614EF1205079001DAE475F0AE
:1030CB00011205A28005E49001D8F0E5E630E1FBA2
:1030DB009001D7E5E7F09001D4E014F070C49001B3
:1030EB00D7E0FF9001D9120614EF120507D2E99031
:1030FB0001D0E0FE9001D5E0FDEEEDFF229000FC4B
:10310B00EFF0E4FF12230B9000FDEFF09000FCE0DA
:10311B0014601014601A240270219000FDE054F723
:10312B00F080189000FDE04408F0E054FBF0800BB9
:10313B009000FDE04408F0E04404F09000FDE0FD59
:10314B00E4FF0222EB7D707F071222EBEF5470FF3E
:10315B0022EF24FE5403FF9000FCE054FC4FF0E000
:10316B00FD7F030222EB9000FCEFF07F0612230B96
:10317B009000FDEFF09000FCE0601124FE701A90BF
:10318B0000FDE04420F0E054F7F080189000FDE0E3
:10319B0054DFF0E054F7F0800B9000FDE054DFF0CB
:1031AB00E04408F09000FDE0FD7F060222EB7F1764
:1031BB0012230BEF5401FF22EF543F9000FCF0E081
:1031CB00FD7F1C0222EB9000FCEFF07F1D12230B06
:1031DB009000FDEFF09000FCE060047F0180027F27
:1031EB0000EF5401FF25E025E0FF9000FDE054FBCC
:1031FB004FF0E0FD7F1D0222EB9000FCEFF07F1DF6
:10320B0012230B9000FDEFF09000FCE060047F01B7
:10321B0080027F00EF5401FF25E0FF9000FDE0549A
:0F322B00FD4FF0E0FD7F1D0222EB7F08022F21F7
:00000001FF
