:100000000210FAC0E0C0F0C083C082C0D075D0003A
:10001000C000C001C002C003C004C005C006C007C4
:10002000120CE7D007D006D005D004D003D002D000
:1000300001D000D0D0D082D083D0F0D0E0327D701B
:0A0040007F0712166BEF5470FF22C9
:10004B0002136FD390005CE0940090005BE094008F
:0E005B00400690005AE0FF22900057E0FF227E
:10006B000200030203B6E86480F8E933E833601159
:10007B000460F0ED33EC337009E8FCE9FDEAFEEBCC
:10008B00FF220460DED3EB9FEA9EE99DE8C2E78C7A
:10009B00F0C2F795F0400CE8CCF8E9CDF9EACEFACE
:1000AB00EBCFFB12038185D0F05804700320D5B33E
:1000BB00E80470075002B2D50203C092D5EC04607D
:1000CB00F7E4CCC0E0C398F8603B94186008400D8F
:1000DB00D0E0FB020398E4FBFAC9FC8028E830E48B
:1000EB0006E4C9FBE4CAFCE830E305E4C9CACBFC6F
:1000FB00E854076010F8C3E913F9EA13FAEB13FBA2
:10010B00EC13FCD8F130F52FC3E49CFCEF9BFFEE16
:10011B009AFEED99FDD0E0FBEF4E4D4C701222DBB9
:10012B00030203BDEC2CFCEF33FFEE33FEED33FD8E
:10013B00ED30E7EB020398EF2BFFEE3AFEED39FDC6
:10014B00D0E0FB50130BBB00030203C0ED13FDEE1D
:10015B0013FEEF13FFEC13FC020398EC4D6011E858
:10016B00497017ED33EC3304600DE4FCFFFEFD2208
:10017B00E933E8330470F80203B6120381580460C4
:10018B0009E4CC248150062850090203C0284003FF
:10019B000203BDC0E0EB4A7044B98006D0E0FB021D
:1001AB0003ACEF4E701CBD8008EBFFEAFEE9FD804F
:1001BB00EBE98DF0A4FEE5F002024FE9CDF9EAFE82
:1001CB00EBFFEF89F0A4FCE5F0CE89F0A42EFFE461
:1001DB0035F0CD89F0A42DFEE435F08067EF4E703D
:1001EB0005BD80D780C3EF8BF0A4ACF0EE8BF0A4F1
:1001FB002CFCE435F0F8EF8AF0A42CE5F038FCE4A5
:10020B0033CB8DF0A42CFCE5F03BF8EE8AF0A42C5C
:10021B00FCE5F038F8E433CF89F0A42CFCE5F0389A
:10022B00CF3400CE89F0A42FFFE5F03EFEE433C9B6
:10023B008DF0A42EFEE5F039CD8AF0A42FFFE5F06A
:10024B003EFEE43DFD33D0E0FB50070BBB000F023D
:10025B0003C0EC2CFCEF33FFEE33FEED33FD02035A
:10026B00980203C0EC5D046005E8590470030203B7
:10027B00B6120381580460F6EC4860F2EC7004FD92
:10028B00FEFF22C860DB2481C85009C3986002506E
:10029B00060203BD9850CAF582E9294B4A7005AB9B
:1002AB00820203AC75F0007C1A7880C3EF9BEE9A48
:1002BB00ED99400DC3EF9BFFEE9AFEED99FDE842E1
:1002CB00F0DC23ACF0D0E0FFD0E0FED0E0FDAB8261
:1002DB0020E7101BEB60BAEC2CFCEF33FFEE33FE88
:1002EB00ED33FD020398E803F830E705C0F075F035
:1002FB0000EF2FFFEE33FEED33FD40B830E7C28049
:10030B00AA75F020800E75F010800575F0087D0041
:10031B007E007F003392D530D5031205B8EC334005
:10032B0010EF33FFEE33FEED33FDEC33FCD5F0ED88
:10033B0022E5F0247EA2D513CC92E7CDCEFF22EDA1
:10034B00D2E7CD33EC3392D524814006E4FFFEFD9A
:10035B00FC22FCE4CFCECDCC24E0501174FF80ED19
:10036B00C3CC13CCCD13CDCE13CECF13CF0470F0A3
:10037B0030D5DE0205B8E9D2E7C933E833F892D5B8
:10038B00EDD2E7CD33EC33FC5002B2D522EC30E7A3
:10039B00100FBF000C0EBE00080DBD00040BEB6070
:1003AB0014A2D5EB13FCED92E7FD2274FFFCFDFECE
:1003BB00FF22E480F8A2D574FF13FC7D80E480EF6C
:1003CB00E709F608DFFA8046E709F208DFFA803E14
:1003DB0088828C83E709F0A3DFFA8032E309F60801
:1003EB00DFFA8078E309F208DFFA807088828C8369
:1003FB00E309F0A3DFFA806489828A83E0A3F6081D
:10040B00DFFA805889828A83E0A3F208DFFA804CF6
:10041B0080D280FA80C680D4806980F280338010CD
:10042B0080A680EA809A80A880DA80E280CA803336
:10043B0089828A83ECFAE493A3C8C582C8CCC583AE
:10044B00CCF0A3C8C582C8CCC583CCDFE9DEE7807E
:10045B000D89828A83E493A3F608DFF9ECFAA9F0FD
:10046B00EDFB2289828A83ECFAE0A3C8C582C8CC53
:10047B00C583CCF0A3C8C582C8CCC583CCDFEADE6C
:10048B00E880DB89828A83E493A3F208DFF980CCCE
:10049B0088F0EF60010E4E60C388F0ED2402B404C7
:1004AB000050B9F582EB2402B4040050AF2323456E
:1004BB00822390041B73BB010689828A83E022503E
:1004CB0002E722BBFE02E32289828A83E49322BBEA
:1004DB00010CE58229F582E5833AF583E02250068B
:1004EB00E92582F8E622BBFE06E92582F8E222E541
:1004FB008229F582E5833AF583E49322BB010689D1
:10050B00828A83F0225002F722BBFE01F322F8BB52
:10051B00010DE58229F582E5833AF583E8F0225057
:10052B0006E92582C8F622BBFE05E92582C8F22220
:10053B00EF8DF0A4A8F0CF8CF0A428CE8DF0A42ED4
:10054B00FE22BC000BBE0029EF8DF084FFADF02224
:10055B00E4CCF875F008EF2FFFEE33FEEC33FCEE36
:10056B009DEC984005FCEE9DFE0FD5F0E9E4CEFD29
:10057B0022EDF8F5F0EE8420D21CFEADF075F008FC
:10058B00EF2FFFED33FD4007985006D5F0F222C355
:10059B0098FD0FD5F0EA22C5F0F8A3E028F0C5F0DE
:1005AB00F8E582158270021583E038F022C3E49FD0
:1005BB00FFE49EFEE49DFDE49CFC229000BBEBF06F
:1005CB00A3EAF0A3E9F09000BAEFF09000C2740137
:1005DB00F09000BBE09000C0F0EF14600C24FB60C7
:1005EB000824FE601C240870431217F99000BEEF1C
:1005FB00F0A3F0C2E99000BAE0240AFF1217EF80D3
:10060B00341217E49000BAEFF0C39407501312188A
:10061B003B9000BEEFF0A3F0C2E97F611217EF80B1
:10062B0014E49000BFF09000BEF08009E49000BF8E
:10063B00F09000BEF09000C0E0FF704D9000BBE06A
:10064B00A3E0A3E09000C3F0E4F5E79000C2E070F4
:10065B00119000C1E0FE9000C3E0F8A606E004F0A4
:10066B008005E49000C2F0E5E630E1FB9000C1E5C7
:10067B00E7F09000BEE014F070CE9000C1E0FE9069
:10068B0000C3E0F8A6060207C1EF6401706A900090
:10069B00BBE0A3E0FAA3E0FF9000C3EAF0A3EFF006
:1006AB00E4F5E79000C2E070229000C1E0FF9000FB
:1006BB00C3E0FCA3E0F5828C83EFF09000C4E00470
:1006CB00F070069000C3E004F08005E49000C2F0E7
:1006DB00E5E630E1FB9000C1E5E7F09000BEE014E9
:1006EB00F070BD9000C1E0FF9000C3E0FCA3E0F50B
:1006FB00828C83EFF00207C19000C0E064FE704C67
:10070B009000BBE0A3E0A3E09000C3F0E4F5E7901A
:10071B0000C2E070119000C1E0FF9000C3E0F8EF61
:10072B00F2E004F08005E49000C2F0E5E630E1FB76
:10073B009000C1E5E7F09000BEE014F070CE9000A1
:10074B00C1E0FF9000C3E0F8EFF2806A9000BBE0DD
:10075B00F9A3E0FAA3E09000C3C9F0A3EAF0A3E980
:10076B00F0E4F5E79000C2E070209000C1E0FF904C
:10077B0000C3E0FBA3E0FAA3E0F9EF12050790003A
:10078B00C4E475F0011205A28005E49000C2F0E507
:10079B00E630E1FB9000C1E5E7F09000BEE014F01D
:1007AB0070BF9000C1E0FF9000C3E0FBA3E0FAA391
:1007BB00E0F9EF120507D2E99000BAE0FE9000BF16
:1007CB00E0FDEEEDFF22C2B9C2BDD20BD2EA12158B
:1007DB00BD900063EFF030E635D20412180DEF2414
:1007EB00FF92051216C290005DE0B401219000113A
:1007FB00E0FF900056E0FE2429F582E43400F583F7
:10080B00EFF0EEC394025006900056E004F0900017
:10081B0063E0FF20E40330E520121803EF04FF90A0
:10082B000060F0FD900028E0C39DF0ED900059E0D2
:10083B002FF0900058E03400F0900063E0FD20E5CD
:10084B000302090490005DE064016003020904D215
:10085B000A900027E02412FFE433FEEF7802C33343
:10086B00CE33CED8F9FF900042E02FFF900041E04D
:10087B003EFEC3900040E09FFF90003FE09EFEEDE8
:10088B0030E60874D82FFF74FF3EFE1211F21217D8
:10089B00541216C290002FE0FEA3E0FF900061EE11
:1008AB00F0A3EFF090004BE0FDA3E090002DCDF016
:1008BB00A3EDF0EF64024E6013900061E0FEA3E045
:1008CB00FF64034E6006EF64044E7002D2031217EE
:1008DB00CEEF6007D20012141C801E1216A9E490F2
:1008EB000012F0A3F0900058F0A3F0D2EAD2E8D2B5
:1008FB000C7F0AFE121783C2E8900063E020E4032A
:10090B000209B4C2E8A20B92EAC20C900060E0FFAD
:10091B00900013E02FF0900012E03400F0900031C3
:10092B00E0FEA3E0FF900061EEF0A3EFF04E601548
:10093B00900061E0FEA3E0FFC3900013E09F9000E6
:10094B0012E09E500330090512141C805C900028A5
:10095B00E0704490004DE0FEA3E0FFD3900055E023
:10096B009F900054E09E4010E490002DF0A3F0C245
:10097B00037F01120F3680313003151213E3D3EFCF
:10098B009401EE94004002C2067F02120F368019CA
:10099B007F03120F368012121604D2EAD2E8D20C61
:1009AB007F0A7E00121783C2E8C20BA20C92EAD216
:1009BB00B9D2BD22900080EBF0A3EAF0A3E9F0A33B
:1009CB00EDF06007E0FED3941B40037F0022900004
:1009DB0027EEF090005DE0B402031215E112170848
:1009EB00900011E0FF900084E0FE6F600790001113
:1009FB00EEF0D20190005DE06003020B5F2001037B
:100A0B00020AC8C201D202FF1214E97D01E4FF12EF
:100A1B000FD6900084E070197B017A00794F7F0626
:100A2B001212437B017A00794FE4FF121243020A40
:100A3B00C87B017A0079857F011212DD90008CEF63
:100A4B00F0900084E0FF64016053EF24FD601A1402
:100A5B00602914603880007B017A0079857F02124F
:100A6B0012DD90008CEFF080347B017A0079857F6A
:100A7B00031212DD90008CEFF080227B017A00795B
:100A8B00857F041212DD90008CEFF080107B017AD1
:100A9B000079857F051212DD90008CEFF07B017AD7
:100AAB00007985E4FF1212437B017A0079857F067A
:100ABB00121243900084E0FF7D011213AAE4900010
:100ACB0012F0A3F0900054F0A3F0900058F0A3F0B4
:100ADB00121821900080E0FBA3E0FAA3E0F9A3E059
:100AEB00FD1217D9C20090002FE0FFA3E090008AFF
:100AFB00CFF0A3EFF07F0112168B30032C90008AFE
:100B0B00E0FEA3E0FFEE700AEF24FD600C14601012
:100B1B008000E4FF120F3680307F01120F368029E0
:100B2B007F02120F368022802090008AE0FEA3E025
:100B3B00FFEE7010EF24FE600424027007E4FF1236
:100B4B000F3680057F01120F3690005D7401F01295
:100B5B0017B8FF2220011D1217A0EF70179000800D
:100B6B00E0FBA3E0FAA3E0F9A3E0FD1217D91217FB
:100B7B00B87F01221217B87F002278807C007D019C
:100B8B007BFF7A1879417E007F0512049B121708B0
:100B9B00C2E8A20B92EAC20C7F011214B77F0112BA
:100BAB0014517FFF121774E4900014F090002C7412
:100BBB0005F0C209C20AE4900011F0C208D201D2BA
:100BCB0002C206D20090002DF0A3F0C203C204C2F1
:100BDB0005900056F07B017A00794FFF1212437B90
:100BEB00017A0079807F011212439000807403F028
:100BFB007B017A0079807F0212124390008074048B
:100C0B00F07B017A0079807F03121243900080748D
:100C1B0005F07B017A0079807F04121243900080EB
:100C2B007406F07B017A0079807F051212439000E5
:100C3B0014E02415F582E43400F583E0FF1217303D
:100C4B00E490002FF0A3F0A304F0A374F4F0A3E45A
:100C5B00F0A37402F0A3E4F0A37423F0E4A3F0A3D5
:100C6B00F0A3F0A3743FF0E4900045F0A3F09000E4
:100C7B003BF0A3F0A3F0A37464F0A37403F0A3748C
:100C8B00F0F0A37401F0A37468F0A3E4F0A3740272
:100C9B00F0900047E4F0A37403F0E4A3F0A3F0A3F7
:100CAB00F0A37496F0A3E4F0A37432F0900047E045
:100CBB00A3E0FF1215967F011213267F02121294E6
:100CCB007F051216F212003E1218171218217FF030
:100CDB007E031211F212141C1217B822C2B9C2BD34
:100CEB00121186300A0D90003FE0FEA3E0FF1211B7
:100CFB00F2C20A90005DE064026003020DBF1200B5
:100D0B004E7E0090005EEEF0A3EFF0D20BD2EA9095
:100D1B000014E06F7001E4602CC2E8A20B92EAC2EF
:100D2B000C90005EE0A3E02415F582E43400F5831B
:100D3B00E0FF121730D2EAD2E8D20C90005EE0A3AB
:100D4B00E0900014F012106990005EEEF0A3EFF04B
:100D5B00121069EF4E700F7F0112168BD206D2EA7A
:100D6B00D2E8D20C800FC2E8A20B92EAC20CC206E8
:100D7B00E4FF12168B900013E004F0700690001243
:100D8B00E004F090003BE0FEA3E0FF90005EEEF08D
:100D9B00A3EFF0D39400EE9400405990005EE0FE78
:100DAB00A3E0FF900013E09F900012E09E404512DD
:100DBB00141C804090005DE06401703830083512DF
:100DCB0013E390005EEEF0A3EFF030031490005E9F
:100DDB00E07002A3E0701D12004E900014E0B50706
:100DEB0013D2EAD2E8D20C7F0A7E00121783C2E834
:100DFB00D206C208D390002EE0940090002DE09410
:100E0B0000400EA3E024FFF090002DE034FFF080B3
:100E1B0002C203C20BA20C92EAD2B9D2BD2290003D
:100E2B0092EBF0A3EAF0A3E9F0900092E0FDC2E9A7
:100E3B008FE7ED702BE0A3E0A3E0900097F090001C
:100E4B0097E0F8E6FEE004F0E5E630E1FB90009673
:100E5B00E5E7F08EE7900095E014F070E1020F28C3
:100E6B00ED64017043900092E0A3E0FBA3E09000DF
:100E7B0097CBF0A3EBF0900097E0FEA3E0F5828E0A
:100E8B0083E0FE900098E004F07006900097E00479
:100E9B00F0E5E630E1FB900096E5E7F08EE7900099
:100EAB0095E014F070D08075ED64FE702D9000927B
:100EBB00E0A3E0A3E0900097F0900097E0F8E2FE4B
:100ECB00E004F0E5E630E1FB900096E5E7F08EE715
:100EDB00900095E014F070E18043900092E0F9A34C
:100EEB00E0FAA3E0900097C9F0A3EAF0A3E9F09031
:100EFB000097E0FBA3E0FAA3E0F91204C1FE900017
:100F0B0098E475F0011205A2E5E630E1FB9000963E
:100F1B00E5E7F08EE7900095E014F070D2E5E6304F
:100F2B00E1FB900096E5E7F0D2E9229000C8EFF0E4
:100F3B001216A91216049000C8E014601214602057
:100F4B001460278000900014E09000C9F080359069
:100F5B00002CE0FDE4FF1213AA9000C9EFF08024EF
:100F6B0012156F9000C9EFF0801A900014E00490F6
:100F7B0000C9F0E0FF90002CE0FEEF8EF0849000B3
:100F8B00C9E5F0F0900014E0FF9000C9E0FE6F603F
:100F9B0022900014EEF0E02415F582E43400F58382
:100FAB00E0FF121730900055E004F07006900054EB
:100FBB00E004F0300303D20822D206D2EAD2E8D200
:100FCB000C7F0A7E00121783C2E82290008DEFF08F
:100FDB00A3EDF07F021216DA90008FEFF07F011273
:100FEB0016DA900090EFF090008DE0FF24FA500697
:100FFB002407603C80537401A807088002C333D8D0
:10100B00FCFD90008FE04DF090008EE060089000AA
:10101B0090E04DF0803390008DE0FF7401A807083D
:10102B008002C333D8FCF4FF900090E05FF080198E
:10103B0090008F743FF090008EE0600890009074E9
:10104B003FF08005E4900090F090008FE0FD7F0270
:10105B0012166B900090E0FD7F0112166B22900030
:10106B0037E07002A3E0600FD390005CE094009037
:10107B00005BE094004004E4FEFF22900025E0704A
:10108B0002A3E07003FEFF22900035E0FEA3E0FF19
:10109B007C017DDC12053B90003FE0FCA3E0FD12E0
:1010AB00054DAB07AA0690002CE0FF7E00AD03AC0C
:1010BB000212053BD3900026E09F900025E09E5046
:1010CB0018E0FEA3E0FF12054DAF03C3EB9DFFEA53
:1010DB009CCF24FFCF34FFFE22900025E0FEA3E03F
:1010EB00FFC390003EE09FFF90003DE09EFE227804
:1010FB007FE4F6D8FD758121021141021547E49377
:10110B00A3F8E493A34003F68001F208DFF48029EF
:10111B00E493A3F85407240CC8C333C4540F4420DE
:10112B00C8834004F456800146F6DFE4800B0102CD
:10113B00040810204080901485E47E019360BCA3CA
:10114B00FF543F30E509541FFEE493A360010ECF1B
:10115B0054C025E060A840B8E493A3FAE493A3F845
:10116B00E493A3C8C582C8CAC583CAF0A3C8C58205
:10117B00C8CAC583CADFE9DEE780BED390005CE056
:10118B00940090005BE09400400CA3E024FFF090EF
:10119B00005BE034FFF0900026E02401FF90002577
:1011AB00E03400FE90003DE0FCA3E0FD12054D9005
:1011BB000025ECF0A3EDF0900037E07002A3E060A7
:1011CB000A900025E07002A3E0701B900057E0240A
:1011DB0001FFE433FE90002CE0FD7C0012054DAFC7
:1011EB0005900057EDF0229000C6EEF0A3EFF0E46F
:1011FB00FF1217C37F011217C39000C6E0FCA3E0D8
:10120B00FDE4120311E4FBFAF978471201667B0047
:10121B007A247974784912026FE4FBFAF9783F1259
:10122B00007512034A9000C6EEF0A3EFF024FFFF07
:10123B00EE34FFFE12171C2290008EEBF0A3EAF0A7
:10124B00A3E9F090008DEFF014600A24FB502260AC
:10125B0004240670331217F9900095EFF090008D6F
:10126B00E0242AFFA3E0FBA3E0FAA3E0F9120E2986
:10127B002290008DE0240AFFA3E0FBA3E0FAA3E099
:10128B00F91204C1FD12166B22900085EFF0E4FFFA
:10129B001216DA900086EFF0900085E014601014BF
:1012AB00601A24027021900086E054F7F0801890A9
:1012BB000086E04408F0E054FBF0800B900086E0E1
:1012CB004408F0E04404F0900086E0FDE4FF1216C1
:1012DB006B2290008EEBF0A3EAF0A3E9F090008D67
:1012EB00EFF014600824FB60042406701290008D4C
:1012FB00E0FFA3E0FBA3E0FAA3E0F91205C62290FE
:10130B00008DE0240AFF1216DA90008EE0FBA3E0BA
:10131B00FAA3E0F9EF1205077F0122900085EFF0A9
:10132B007F061216DA900086EFF0900085E06011D0
:10133B0024FE701A900086E04420F0E054F7F08011
:10134B0018900086E054DFF0E054F7F0800B90002B
:10135B0086E054DFF0E04408F0900086E0FD7F0665
:10136B0012166B22C0E0C0F0C083C082C0D075D013
:10137B0000C000C001C002C003C004C005C006C04D
:10138B00071207D1D007D006D005D004D003D00266
:10139B00D001D000D0D0D082D083D0F0D0E032EFCB
:1013AB00D394004005900010EFF0900010E0FFC4C4
:1013BB003333335480FEEFC4333354806EFEE0FF7F
:1013CB00C43354806EFEEF54806EFEE0C3134EF0B8
:1013DB00AE058EF084AFF022900037E07002A3E0F0
:1013EB00600FD390005CE0940090005BE0940040B1
:1013FB0004E4FEFF22900025E0FCA3E0FD4C70030B
:10140B00FEFF22C390003EE09DFF90003DE09CFE5E
:10141B0022C2E8A20B92EAC20C90005DE0B4020576
:10142B007F0F12164A900049E07004A3E06401702C
:10143B0006FF12168B80057F0112168BC206C2099E
:10144B00E490005DF022900085EFF07F1D1216DA1C
:10145B00900086EFF0900085E060047F0180027FB2
:10146B0000EF5401FF25E025E0FF900086E054FBE0
:10147B004FF0E0FD7F1D12166B2250001504192A48
:10148B003F4D000000000000000000000045004F31
:10149B000104070A0D410010FF4100570041005A9B
:1014AB000042005B0000420025000000900085EF29
:1014BB00F07F1D1216DA900086EFF0900085E06049
:1014CB00047F0180027F00EF5401FF25E0FF9000B5
:1014DB0086E054FD4FF0E0FD7F1D12166B2290004D
:1014EB008DEFF0E4FF1216DA90008EEFF090008D86
:1014FB00E0B40107A3E04401F0800790008EE054B4
:10150B00FEF090008EE0FDE4FF12166B229000CAF5
:10151B00EFF0E4FF1216DA9000CBEFF09000CAE088
:10152B00B40107A3E04402F080079000CBE054FD28
:10153B00F09000CBE0FDE4FF12166B221217441261
:10154B000B85D2AF121835EF70FAE580F490006579
:10155B00F07B017A007965E4900084F07D1B120921
:10156B00BF80E122D390005CE0940190005BE0949B
:10157B0000400690005AE0FF22900057E004FF90D5
:10158B00002CE0FEEF8EF084AFF022900085EFF0A0
:10159B007F061216DA900086EFF0900085E0540378
:1015AB00FF25E0FFA3E054F94FF0E0FD7F06121694
:1015BB006B227D707F0712166BEF5470900064F0F6
:1015CB00E0FFC0077F071216DAEF540FFED0E04E94
:1015DB00FF900064F02290005DE0B4010BD2099003
:1015EB00005DE0601380F82290005DE0B402091208
:1015FB00170812141C1217B822900028E0D3940F6E
:10160B00400A7DFA7C007F0F12162722900028E0FB
:10161B00C39401FF7DFA7C0012162722AB07EC5412
:10162B000FFFC454F0FF9000CCE0540F4FF0EB547D
:10163B000FFFE054F04FF0E0FD7F0412166B22AE6B
:10164B00071FEED3940040177C007D2DED1DAA04DF
:10165B0070011CD39400EA940040E480EF80E022F8
:10166B00C2E9EF2420F5E7E5E630E1FBAFE7AE0595
:10167B008EE7E5E630E1FB9000CEE5E7F0D2E9221C
:10168B00EF60132007177F011215187F03AE071F9A
:10169B00EE70FAD20722E4FF121518C207223003AC
:1016AB000B900033E0A3E0900028F022900035E08F
:1016BB00A3E0900028F022900043E0FFA3E090000D
:1016CB005BCFF0A3EFF0900014E090005AF022C231
:1016DB00E98FE7E5E630E1FBAFE7E4F5E7E5E63078
:1016EB00E1FBAFE7D2E922EF24FE5403FF90008524
:1016FB00E054FC4FF0E0FD7F0312166B22A2AFE427
:10170B0033FFC2AFC2B9C2BDD20BD2EA24FF92AF34
:10171B0022E5B35406FD53B3F9EFF5B4EEF5B5AFCF
:10172B0005EF42B322EF547FFF9000CDE054804F82
:10173B00F0E0FD7F0512166B227F021217AC7F03C0
:10174B001217927F0112176422900014E090005739
:10175B00F0E4900025F0A3F022EF6009E5A34480AC
:10176B0054F7F5A32253A37722EF543F900085F053
:10177B00E0FD7F1C12166B220000000000EF1F70B3
:10178B00011E144E70F222EF25E05406FFE5B35410
:10179B00F94FF5B3227F171216DAEFC4135401FF7A
:1017AB0022EF5407FFE5AD54F84FF5AD22D2B9D275
:1017BB00BDC20BA20C92EA22EF600443B301225389
:1017CB00B3FE227F171216DAEFC45401FF229000EA
:1017DB0095EDF07FA0120E292212182BEF540EFF5D
:1017EB00C313FF228FE7E5E630E1FBAFE7227F0370
:1017FB001216DAEF2402FF227F081216DAEF540FCB
:10180B00FF227F091216DAEF5401FF22C2E97FE2B1
:10181B001217EFD2E922C2E97FE11217EFD2E922C8
:10182B00C2E97FFF1217EFD2E92290005DE0FF22A1
:10183B007F601216DA220205080B0E0004FFFFFF71
:10184B00FFFFFF0001003FFFFFFFFFFFFFFFFFFF59
:0B185B00FF003F00030001FFFFFFFF44
:00000001FF
