:1000000002020E7593007580007522327523FE750D
:1000100024327525FDE522C3940550057523018022
:100020000AE522D3944B40037523FFC3E524648083
:1000300094855005752505800CD3E524648094CB08
:1000400040037525FBE5232522F522E5252524F52A
:1000500024AF24EF3395E0FEAD227C00ED2FFFECC2
:100060003EFE1201C3E580B4FF167527007521011D
:10007000E521F4F580751FFF7520FF752601809539
:10008000E5807015752701752101852180751F0098
:10009000752000752601020015E527606EE52660D3
:1000A00035E52125E0F521E521451FFFEF4520F548
:1000B00080E5216480600FE52125E0FFEF5520FFFA
:1000C000EF7003020015E520C313FFEF4480F52015
:1000D000752600020015E521C313F521E521451F12
:1000E000FFEF4520F580E5216401600FE521C31392
:1000F000FFEF551FFFEF7003020015E51F25E0FF1E
:10010000EF4401F51F752601020015E5266031E573
:100110002125E0F521E51F5520FFEF6521F580E55C
:10012000216480600FE52125E0FFEF5520FFEF609F
:1001300003020015E520C313F52075260002001503
:10014000E521C313F521E51F5520FFEF6521F5805B
:10015000E5216401600FE521C313FFEF551FFFEF99
:100160006003020015E51F25E0F51F75260102005A
:100170001522BB010689828A83E0225002E722BB56
:10018000FE02E32289828A83E49322BB01068982EC
:100190008A83F0225002F722BBFE01F322D083D0E3
:1001A00082F8E4937012740193700DA3A393F87412
:1001B0000193F5828883E4737402936860EFA3A3CC
:1001C000A380DF8E598F5A7FFA7E001201F47FFAE6
:1001D0007E001201F47FFA7E001201F47FFA7E00A5
:1001E0001201F4E55A155A7002155914FFAE59EF71
:1001F0004E70D4228E578F580000000000E558152D
:10020000587002155714FFAE57EF4E70EB22787FEF
:0A021000E4F6D8FD75817F020003BB
:00000001FF
