:100000000201B9D2EAD2B9D2AF1201D9BF02FA7F46
:1000100001120169E580F4F5097B007A0079097D18
:10002000031201E3750C14D2E8AF0C150CEF70F954
:10003000C2E8751601E516D3940040D880F77D70AC
:0A0040007F07120186EF5470FF22C3
:10004B000200F28B0E8A0F8910AD0EC2E98FE7ED1D
:10005B007018851013A813E6FE0513E5E630E1FBD7
:10006B0085E7128EE7D511ED8072ED640170258561
:10007B000F13851014851482851383E0FE0514E598
:10008B001470020513E5E630E1FB85E7128EE7D528
:10009B0011E38048ED64FE7018851013A813E2FE7F
:1000AB000513E5E630E1FB85E7128EE7D511ED8010
:1000BB002B850E13850F14851015AB13AA14A915D8
:1000CB0012013EFE74012515F515E43514F514E502
:1000DB00E630E1FB85E7128EE7D511DEE5E630E190
:1000EB00FB85E712D2E922C0E0C0F0C083C082C01A
:1000FB00D075D000C000C001C002C003C004C00551
:10010B00C006C00712003EEF24F0600624F0700812
:10011B0080031201CF751600D007D006D005D0048E
:10012B00D003D002D001D000D0D0D082D083D0F079
:10013B00D0E032BB010689828A83E0225002E7229B
:10014B00BBFE02E32289828A83E49322BB010689E8
:10015B00828A83F0225002F722BBFE01F3228F0D1D
:10016B00E4FF1201A18F0EE50DB40105430E0280D1
:10017B0003530EFDAD0EE4FF020186C2E9EF24200E
:10018B00F5E7E5E630E1FBAFE78DE7E5E630E1FBD0
:10019B0085E70FD2E922C2E98FE7E5E630E1FBAF55
:1001AB00E7E4F5E7E5E630E1FBAFE7D2E922787F5C
:1001BB00E4F6D8FD7581160200038FE7E5E630E122
:1001CB00FBAFE722C2E97FE11201C5D2E922E5AD1F
:0F01DB007F0130E3027F02228D117FA002004ED0
:00000001FF
