:1009EC000D0A48656C6C6F20576F726C64210D0A90
:1009FC000054656D7065722049733A253033642E4E
:100A0C002530346420430D0A000D0A4E6F7420709B
:090A1C0061636B6574210D0A0091
:080E67008F42120BB3AF4222CF
:040EB000120C84227A
:100026008B2E8A2F8930AB2EAA2FA9301204E060BE
:10003600130530E5307002052F14F91204E0FF12A3
:050046000E6780E222BC
:10074400D2817593D77594FE7F04120926120D8405
:10075400BF02FAD2AFD2EAD2B97F01120BF97D03FC
:10076400E4FF120E777F01120C16D2E87BFF7A09A0
:1007740079EC120026E4F51DE51D603AE51FAE1E76
:100784007804CEA2E713CE13D8F8F5328E31AE1E1C
:10079400AF1F7C007D1012051D7E027F7112050BB8
:1007A4008E338F347BFF7A0979FD1200B0AA06A933
:1007B400077B001200267BFF7A0A79151200268037
:0107C400B77D
:03004B0002088721
:10088700C0E0C0F0C083C082C0D075D000C000C037
:0D08970001C002C003C004C005C006C007B8
:1008A400120DA8EF5440D394004013120E0DEF70B4
:0E08B4000DAA1EA91FFB120EAA751D0180EDD4
:1008C200D007D006D005D004D003D002D001D0008A
:0B08D200D0D0D082D083D0F0D0E03234
:0B0C50007FFA7E00120C5B7FFA7E0032
:0F0C5B000000000000EF1F70011E144E70F22207
:100D0E00AD07AC06120C50120C50ED1D70011C14E8
:040D1E004C70F12202
:030023000208DDF3
:1008DD00C0E0C0D075D000C000309819C298E511A5
:1008ED00C39408501074712515F8A699E515045494
:1008FD0007F515051130991AC299E512D3940140E7
:10090D000F74792514F8E6F599E514045407F514D8
:09091D001512D000D0D0D0E03258
:10092600C2ACE4F514F516F512F513F515F511D26A
:100936009CC29FD29E43878043D880EF24FC6013DD
:1009460024FE60091470127C037DF780107C037D01
:10095600F3800A7C037DCC80047C037DE68DAA8C23
:05096600BAC299D2ACF9
:01096B002269
:100BB300E512D3940850F9C2ACE51270048F998002
:100BC3000E74792516F8A607E516045407F51605DD
:040BD30012D2AC226C
:030EB400AF112259
:0A0DEF00E51270037F01227F00224D
:100C8400E51160FCC2AC74712513F8E6FFE51304AA
:080C94005407F5131511D2AC51
:010C9C002235
:100D5700EF6009E5A3448054F7F5A32253A3772254
:100D3500EF5401C4333354C0FFE5A354B74FF5A3B3
:010D4500228B
:0F0D6700EF5403C454F0FFE5A354C74FF5A32284
:0B0D8400E5AD30E3047F0280027F0138
:010D8F002241
:0C0D9000EF5407FFE5A354F04FF5A32239
:060E8C00E5AD5480FF22D9
:060E9200E5AD5440FF2213
:0C0D9C00EF5407FFE5AD54F84FF5AD2211
:0A0DF9008FE7E5E630E1FBAFE722EB
:020BF9008F2E3D
:100BFB00E4FF120C6A8F2FE52EB40105432F018001
:0B0C0B0003532FFEAD2FE4FF020C335B
:020C16008F2E1F
:100C1800E4FF120C6A8F2FE52EB40105432F0280E2
:0B0C280003532FFDAD2FE4FF020C333F
:020A91008F5A7A
:100A9300E4FF120C6A8F5BE55A14600C1460112496
:100AA300027013535BF7800E435B08535BFB8006B6
:0D0AB300435B08435B04AD5BE4FF020C33C2
:0407C5008F548D556B
:1007C900E4FF120C6A8F56E55424FB601E14603353
:1007D90024027049E55560047F0080027F01EF54CF
:1007E90001C454F0FFE55654EF802FE55560047FAE
:1007F9000080027F01EF5401C43354E0FFE55654F1
:10080900DF8017E55560047F0080027F01EF540106
:10081900C4333354C0FFE55654BF4FF556AD56E4C3
:04082900FF020C338B
:0B0DA8007D707F07120C33EF5470FFCA
:010DB300221D
:100C9D007D707F07120C33EF5470F56A7F07120CCD
:080CAD006AEF540F426AAF6ABE
:010CB500221C
:100D46007401A807088002C333D8FCFD7F07020C94
:010D56003369
:080E6F00120E5DEF5470FF222A
:04082D008F488D491A
:100831007F02120C6A8F4A7F01120C6A8F4BE548C6
:1008410024FA500624076021802EAF487401A807BE
:10085100088002C333D8FCFF424AE5496005EF42F4
:100861004B8015EFF4524B800F754A3FE549600507
:10087100754B3F8003E4F54BAD4A7F02120C33AD5B
:060881004B7F01020C3365
:02096C008F57A3
:10096E007F02120C6A8F587F01120C6A8F59E5575D
:10097E0024FA5006240760168019AF577401A80791
:10098E00088002C333D8FCF4525852598005E4F55E
:10099E0058F559AD587F02120C33AD597F01020C38
:0109AE003315
:1009AF008F4C8B4D8A4E894FE54C14600A24FB50B7
:1009BF0019600424067025120E038F0CE54C242AAF
:1009CF00FFAB4DAA4EA94F02060BE54C240AFFAB15
:0D09DF004DAA4EA94F1204E0FD120C332268
:100A5C008F508B518A528953E55014600824FB60E7
:100A6C00042406700BAB51AA52A953AF500203AA2F
:100A7C00E550240AFF120C6AAB51AA52A953EF128B
:050A8C0004F97F0122C6
:020BD700AB076A
:100BD900EC540FC454F0FFE56B540F4FF56BEB5415
:100BE9000FFFE56B54F04FF56BAD6B7F04020C33CF
:100CB600E4F56CEF24FE5403FFE56C54FC4FF56C31
:070CC600AD6C7F03020C334B
:0A0E03007F03120C6AEF2402FF22A5
:070E7700EF2411FF020C3310
:0206B4008F179E
:1006B6007F02120C6A8F187F01120C6A8F19E517D8
:1006C60014601A14602714603414604314604E24B6
:1006D60005705EE5185401F51AE519804EAF18EF5E
:1006E600C3135401F51AAF19EFC313803EAF18EFC9
:1006F60013135401F51AAF19EF1313802EAF18EF29
:100706001313135401F51AAF19EF131313801CAF0B
:1007160018EFC45401F51AAF19EFC4800EAF18EFE5
:10072600C4135401F51AAF19EFC4135401F51B8015
:0D07360005E4F51AF51BE51B25E0251AFF6B
:010743002293
:060E98007F08120C6A2223
:100CCD007F08120C6AEF54F0FFE4C4F854F0C8EF3B
:060CDD00C4540F48FF2281
:100A2500EF14601414601514601614601714601820
:100A35002405701D7F1180127F12800E7F13800A9E
:100A45007F1480067F1580027F16120C6A8F6D80D9
:060A550003E4F56DAF6D36
:010A5B002278
:100CF900E4F56EEF547FFFE56E54804FF56EAD6EEF
:050D09007F05020C3320
:020003008F5C10
:100005007F06120C6A8F5DE55C540325E0FFE55D14
:0C00150054F94FF55DAD5D7F06020C3321
:020AC0008F5E47
:100AC2007F06120C6A8F5FE55E600924FE700D439B
:100AD2005F208003535FDF535FF78006535FDF437E
:090AE2005F08AD5F7F06020C33D2
:0A0E0D007F17120C6AEF5401FF2258
:0C0DB4007F17120C6AEFC3135401FF22DA
:0B0DE4007F17120C6AEFC45401FF22BD
:0C0DC0007F17120C6AEFC4135401FF22CD
:100CE3007F17120C6AEF5430FFE4C4F854F0C8EFD6
:060CF300C4540F48FF226B
:0A0E17007F17120C6AEF5403FF224C
:060E9E007F17120C6A220E
:0A0E21007F08120C6AEF540FFF2245
:0A0E2B007F09120C6AEF5401FF2248
:0100210022BC
:0C0DCC00EF543FF56FAD6F7F1C020C333D
:020B16008F60EE
:100B18007F1D120C6A8F61E56060047F0180027F8F
:100B280000EF540125E025E0FFE56154FB4FF56136
:070B3800AD617F1D020C33CB
:020B67008F629B
:100B69007F1D120C6A8F63E56260047F0180027F3A
:100B790000EF540125E0FFE56354FD4FF563AD63D4
:050B89007F1D020C338A
:020B8E008F6472
:100B90007F1D120C6A8F65E56460047F0180027F0F
:100BA00000EF5401FFE56554FE4FF565AD657F1D0F
:030BB000020C3301
:070E7E008D0C7FA002060BA2
:070E85008D0C7FB002060B8B
:0A0E3500EF44A8FF85470C02060BEE
:060EA4007F60120C6A22BF
:060EAA007F081203AA22DA
:0E0D7600120E5DEF540EFFE4C313EF13FF22C5
:0A0E3F00C2E97FE3120DF9D2E922A7
:100D2200120E9E7E00EF54407806CEC313CE13D827
:030D3200F9FF22A4
:0A0E4900C2E97FE2120DF9D2E9229E
:0A0E5300C2E97FE1120DF9D2E92295
:090E5D00C2E97FFF120DF9D2E990
:010E66002269
:020B3F008F66BF
:100B41007F06120C6A8F67E56660047F0180027F71
:100B510000EF5401C454F0FFE56754EF4FF567AD62
:060B6100677F06020C3361
:020AEB008F6812
:100AED007F06120C6A8F69E56860047F0180027FC2
:100AFD0000EF5401C43333335480FFE569547F4F05
:090B0D00F569AD697F06020C33A5
:100C6A00C2E98FE7E5E6540260FAAFE7E4F5E7E5A3
:090C7A00E6540260FAAFE7D2E98A
:010C8300224E
:100C3300C2E9EF2420F5E7E5E6540260FAAFE78D59
:0C0C4300E7E5E6540260FA85E770D2E9AC
:010C4F002282
:0803AA008F228B238A24892590
:1003B200752A01852328E52214600C24FB60082499
:1003C200FE60142408702C120E038F268F27C2E9B8
:1003D200E522240AFF8017120D768F22E522C394AC
:1003E200075010120EA48F268F27C2E97F61120DCB
:0C03F200F98005E4F527F526E5287028C1
:1003FE0085252BE4F5E7E52A7008A82BA629052B01
:10040E008003E4F52AE5E6540260FA85E729D5264D
:05041E00E2A82BA62955
:090423000204D7E5286401703AD7
:10042C0085242B85252CE4F5E7E52A7013852C8291
:10043C00852B83E529F0052CE52C7007052B800313
:10044C00E4F52AE5E6540260FA85E729D526D78536
:08045C002C82852B83E529F0B9
:080464008071E52864FE702997
:10046C0085252BE4F5E7E52A7009A82BE529F2058B
:10047C002B8003E4F52AE5E6540260FA85E729D5DA
:07048C0026E1A82BE529F28F
:020493008042A5
:1004950085232B85242C85252DE4F5E7E52A701881
:1004A500AB2BAA2CA92DE5291204F97401252DF5EC
:1004B5002DE4352CF52C8003E4F52AE5E65402609D
:1004C500FA85E729D526D2AB2BAA2CA92DE5291229
:0204D50004F928
:0804D700D2E9E522FEE527FF52
:0104DF0022FA
:06060B008B098A0A890B2D
:09061100AD09C2E98FE7ED701993
:10061A00850B0EA80EE6FE050EE5E6540260FA8585
:07062A00E70D8EE7D50CEC93
:070631008075ED64017026E5
:10063800850A0E850B0F850F82850E83E0FE050F58
:10064800E50F7002050EE5E6540260FA85E70D8EA7
:04065800E7D50CE2F4
:07065C00804AED64FE7019F5
:10066300850B0EA80EE2FE050EE5E6540260FA8540
:07067300E70D8EE7D50CEC4A
:02067A00802CD2
:10067C0085090E850A0F850B10AB0EAA0FA9101257
:10068C0004E0FE74012510F510E4350FF50FE5E6D6
:0C069C00540260FA85E70D8EE7D50CDDF6
:0B06A800E5E6540260FA85E70DD2E998
:0106B3002224
:03000000020DD816
:0C0DD800787FE4F6D8FD758180020744A6
:1004E000BB010689828A83E0225002E722BBFE021A
:0904F000E32289828A83E493224D
:1004F900BB010689828A83F0225002F722BBFE01E2
:02050900F322DB
:10050B00EF8DF0A4A8F0CF8CF0A428CE8DF0A42E04
:02051B00FE22BE
:10051D00C2D5EC30E709B2D5E4C39DFDE49CFCEEF9
:10052D0030E715B2D5E4C39FFFE49EFE120580C3EC
:10053D00E49DFDE49CFC800312058030D507C3E4E7
:06054D009FFFE49EFE2268
:10004E00E53D2431F8E6053D22782E300702783161
:10005E00E475F0011205D50204E02000EB7F2ED2EC
:10006E00008018EF540F2490D43440D4FF30040B8A
:10007E00EF24BFB41A0050032461FFE53E60021561
:10008E003E0541E5417002054030070D782EE475BE
:10009E00F0011205D5EF0204F9020E677403D207C0
:1000AE008003E4C207F53D8B2E8A2F8930E4F53E9E
:1000BE00F540F541E53E60077F2012008980F57519
:1000CE003FFFC201C200C202C203C205C206C2087D
:1000DE00120057FF700D3007057F0012009AAF41D6
:1000EE00AE4022B4255FC2D5C204120057FF24D001
:1000FE00B40A00501A75F00A783E30D50508B6FFDE
:10010E000106C6A426F620D5047002D20380D92497
:10011E00CFB41A00EF5004C2E5D20402029AD20103
:10012E0080C6D20080C0D20280BCD2D580BAD205A1
:10013E0080B47F201200892002077401B53E004072
:10014E00F112004EFF1200890200C2D208D20680C0
:10015E009512004EFB12004EFA12004EF94A4B70E9
:10016E0006796B7A037BFF20022EE53E602A7E0025
:10017E008E8275830012055360060EEE653F70F099
:10018E00C2D5EBC0E0EAC0E0E9C0E0EE1202E1D079
:10019E00E0F9D0E0FAD0E0FB1204E0FF60AAEBC079
:1001AE00E0EAC0E0E9C0E0120089D0E02401F9D015
:1001BE00E03400FAD0E0FBE53F0460DCD53FD980A7
:1001CE00877BFF7A0279DDD202809C7910800279DA
:1001DE0008C206C2088008D2D5790A8004790AC2FC
:1001EE00D5E53F047002F53FE4FAFDFEFF12004E26
:1001FE00FC7B0820011312004EFD7B1030000A120A
:10020E00004EFE12004EFF7B20EC3382D592D5506D
:10021E0013C3E43000069FFFE49EFEE42001039D1D
:10022E00FDE49CFCE4CBF8C201EC700CCFCECDCC3F
:10023E00E824F8F870F38017C3EF33FFEE33FEEDCA
:10024E0033FDEC33FCEB33FB994002FB0FD8E9EBAB
:10025E00300105F8D0E0C448B201C0E00AEC4D4EC2
:10026E004F78207B0070C2EAB53F0040BCC0E01260
:10027E0002E3D0F0D0E0200104C4C0E0C4B201C05B
:10028E00F0120072D0F0D5F0EB0200C21205E501BB
:10029E005F5301D95801304C012C4201DD4F01E56D
:0F02AE004401E54901454301EB5501CF4601CF1E
:1002BD004501CF47038B5001342D01382E015B2BA7
:1002CD00013C2301592003742A00F4480000015316
:1002DD003F3F3F00790AA2D5200314300509B9101C
:1002ED00020404B9080104A2D5200602500104201D
:1002FD0002689202B53E005034C0E07F20300319F1
:10030D007F30A20272067205500F12033AC202C26A
:10031D0006C205C2087F30800F300503E9C0E01228
:10032D000089300503D0E0F9D0E0B53ECC3005179B
:10033D007F30B9100C1200897F583004077F788008
:10034D0003B908031200893002057F2D0200897F51
:10035D00202008F87F2B2006F322920280CF286EF2
:10036D00756C6C2900D20112004E3001F8C2017873
:10037D003E30D50108F60200F42D504349581200C5
:10038D004E2403B405004001E49003869312007AD5
:0D039D00743A12007AD203753E040201D9B1
:10055300BB010CE58229F582E5833AF583E022505D
:1005630006E92582F8E622BBFE06E92582F8E222A7
:0D057300E58229F582E5833AF583E49322C1
:10058000BC000BBE0029EF8DF084FFADF022E4CC5F
:10059000F875F008EF2FFFEE33FEEC33FCEE9DEC28
:1005A000984005FCEE9DFE0FD5F0E9E4CEFD22ED6E
:1005B000F8F5F0EE8420D21CFEADF075F008EF2FB8
:1005C000FFED33FD4007985006D5F0F222C398FDA9
:0505D0000FD5F0EA2246
:1005D500FAE6FB0808E6F925F0F618E6CA3AF62227
:1005E500D083D082F8E4937012740193700DA3A3A5
:1005F50093F8740193F5828883E4737402936860B9
:06060500EFA3A3A380DFB8
:00000001FF
