:03000000023E2D90
:10340000E4F508F509F50AF50BF50CF50DF50EF5E3
:103410000FF510F511F513F514F515F516A2B933DE
:10342000F518C2B9A2AFE433F517C2AF1239F3E40D
:10343000F593758055751201E5127002A1C220C185
:1034400002A12EC2C1123B3F900009E060EAE4F005
:10345000F50EF50F90002FE0F50914B409004002B5
:10346000A12690346C25E05002058373A121817E52
:10347000818FA10B81BA81D3A126A126A113123C71
:1034800050123B75E4F50CF50DF50AF50BA129E595
:1034900008B40121751C00751D00751E15751F00EF
:1034A00075200075211375220075230075241112F3
:1034B0003C5012370C850880806FE508B4020F7508
:1034C0001C00751D00751E13123C501238007580CB
:1034D000408056C2E8E514B5161EE513B515197DF2
:1034E000017F007EFE123C94AD117F047EFE123CF3
:1034F000947508017F0780027F08123A3E9000050C
:10350000E07003750803758010801E123992758073
:10351000208016E50860057F0A123A3E758080809B
:1035200008E4F5088003750803E4F5098138E50827
:103530007067050BE50B7002050AD39420E50A9429
:103540000350028138E4F50AF50BE5102401FFE48D
:1035500033FE7C007D03123DF18D1074062510F5BD
:1035600082E43400F583E0FF123CA8851080050D4D
:10357000E50D7002050CD39409E50C94005002810E
:1035800038E4F50CF50DFF7EFE123D28BF01047FE7
:103590000080027F018F128138E50864016002819A
:1035A00038050FE50F7002050EAE0EFFE4FCFD7B43
:1035B000607AEAF9F8C3123DC540028138E4F508A3
:1035C0008138123B03E4F5807593FFE51724FF92E1
:1035D000AFE51824FF92B97F027EFE123D28783EA7
:1035E000A6077F037EFE123D28783FEFF6FD18E622
:1035F000FEEDAA06F9023DEB8F2D8B2E8A2F893026
:10360000753501852E33E52D14600C24FB600824EC
:10361000FE60142408702B123CE28F318F32C2E915
:10362000E52D240AFF8016123CF68F2DEFC3940778
:1036300050101237FA8F318F32C2E97F61123D1E6E
:103640008005E4F532F531E5337026853036E4F552
:10365000E7E5357008A836A63405368003E4F5356D
:10366000E5E630E1FB85E734D531E3A836A634E161
:1036700003E5336401702D852F36853037E4F5E797
:10368000E535700D123C020537E5377007053680C9
:1036900003E4F535E5E630E1FB85E734D531DE12AC
:1036A0003C02805FE53364FE7028853036E4F5E740
:1036B000E5357009A836E534F205368003E4F535C2
:1036C000E5E630E1FB85E734D531E2A836E534F2B2
:1036D0008031852E36852F37853038E4F5E7E5359E
:1036E0007010123BF774012538F538E43537F5379B
:1036F0008003E4F535E5E630E1FB85E734D531DBE1
:10370000123BF7D2E9E52DFEE532FF228B198A1A2A
:10371000891BE4FFF529F52AF52574302525F58266
:10372000E43400F583E02FFF0525E525B407EBEF32
:1037300060079000107402801C900030E0FEA3E04F
:10374000FDEEF529EDF52AD39420E52994F4400BFC
:103750009000107404F07F08023A3EAB1CAA1DA929
:103760001EE529852AF0123DA6900032E0783EF64B
:10377000A3E008F6A3E008F67F23123CCA123C49F6
:103780007530007531037F017EFE123A8590003559
:10379000E0AB22AA23A924123D5CAB1FAA20A921D9
:1037A000E4F5F0123DA6123C57753000753103E484
:1037B000FFFE123BA75387EFE4FF123CCA123C57AF
:1037C000753000753103E4FFFE123A855387EF75BB
:1037D0002501AF25123CCA0525E525C3941A40F200
:1037E0007F07123A3E900005E0AB19AA1AA91B60A8
:1037F0000474028001E4123D5C227F60123C7C2252
:103800008B198A1A891BE4FD900030E0F520A3E0B3
:10381000FEA3E0FBEEF521EBF522C2E8E4F51FE59F
:10382000202405FFE433FEE51FC39FEE6480F87497
:10383000809850127430251FF582E43400F583E03F
:103840002DFD051F80D9ED60079000107402807473
:10385000E4F51FE51FC3952050187434251FF58229
:10386000E43400F583E0FF743E251FF8A607051F2A
:1038700080E1E5224521701F438710E5222403FFE4
:10388000E43521FE7B007A007941E52024FDF53105
:10389000E434FFF5308020AF207E00E5222FFDEEDE
:1038A0003521FCC3ED9420EC94F45013123C468E69
:1038B000308F31AF22AE21123A855387EF800B90C3
:1038C00000107403F07F08023A3EAB1CAA1DA91E2B
:1038D000E48520F0123D6E7F07123A3E900005E02D
:1038E000700BAB19AA1AA91B7403123D5C228B2E14
:1038F0008A2F8930AD2EC2E98FE7ED7018853033FD
:10390000A833E6FE0533E5E630E1FB85E7328EE7D6
:10391000D531ED8072ED64017025852F338530340B
:10392000853482853383E0FE0534E5347002053347
:10393000E5E630E1FB85E7328EE7D531E38048EDFF
:1039400064FE7018853033A833E2FE0533E5E630B7
:10395000E1FB85E7328EE7D531ED802B852E33856F
:103960002F34853035AB33AA34A935123D43FE746C
:10397000012535F535E43534F534E5E630E1FB85F0
:10398000E7328EE7D531DEE5E630E1FB85E732D27E
:10399000E922C2E8900030E0F519A3E0FEA3E0FDC3
:1039A000EEF51AEDF51B123C46753000851931AF66
:1039B0001BAE1A123BA75387EFE51B451A7011FB8C
:1039C0007A00793EF5307531037F017EFE123BA708
:1039D000E4FFEFC395195015743E2FF8E6FE7410FE
:1039E0002FF582E43400F583EEF00F80E57F0712B7
:1039F0003A3E22E4900009F0900005F0D2EA7D20E2
:103A0000FF123D2F7DF47C017F05123BCB7B017AB9
:103A100000790AE4FF123AC67B017A00790A7F0630
:103A2000123AC6900007E0FF123CA87F01123C0C3E
:103A3000123D14BF02FA7F01123C29D2E8228F2BDB
:103A4000C2E8E4FF123C0C90000FE52BF07B017AFA
:103A500000790F7D20123D36752C14D2E8AF2C155D
:103A60002CEF70F9C2E8E4900005F030C1FDC2C14E
:103A7000123B3F7F2090000FE4F0A3DFFC7F011298
:103A80003C0CD2E8228B2D8A2E892F123CBA8E3B19
:103A90008F3CE5311531AE30700215304E60237821
:103AA0002DE475F001123DDB123D43FF053CE53C82
:103AB000AC3B7002053B14F5828C83EFF030FCD2F6
:103AC00080FB123CC3228F198B1A8A1B891CE519B3
:103AD00014600A24FB5019600424067025123CE28D
:103AE0008F31E519242AFFAB1AAA1BA91C0238EE54
:103AF000E519240AFFAB1AAA1BA91C123D43FD12AB
:103B00003C6122C2E8E4FF123C29E4FF123C0C9025
:103B1000004FE0FF123CA87B017A0079007F06127B
:103B20003AC67B017A007900E4FF123AC67DFA7C3E
:103B3000007F03123BCBE4FDFF123D2FC2EA2212AD
:103B40003CD6EF24F0600D24D06012242070259024
:103B50000005801D123D00E4900005F022123CECAF
:103B6000EF700B7B017A00792F123D3D80EF9000C2
:103B7000097401F0228B198A1A891B900010E53D07
:103B8000F07F047EFE123D28900011EFF07F0712B7
:103B90003A3E900005E0AB19AA1AA91B6004740113
:103BA0008001E4123D5C22E5311531AC3070021524
:103BB000304C60168F828E83E0123D5C0FBF000197
:103BC0000E740129F9E43AFA80DD22AB07EC540FB8
:103BD000C454F0FFE519540F4FF519EB540FFFE5EE
:103BE0001954F04FF519AD197F04023C61131354B9
:103BF00001F500AF00EF22AB36AA37A938E5340251
:103C00003D5C853782853683E534F0228F2DE4FFD5
:103C1000123C7C8F2EE52DB40105432E0180035309
:103C20002EFEAD2EE4FF023C618F19E4FF123C7CB6
:103C30008F1AE519B40105431A028003531AFDAD2A
:103C40001AE4FF023C614387107B007A00793E2230
:103C50007B007A007908224387107B007A0079265E
:103C600022C2E9EF2420F5E7E5E630E1FBAFE78D7E
:103C7000E7E5E630E1FB85E72FD2E922C2E98FE7ED
:103C8000E5E630E1FBAFE7E4F5E7E5E630E1FBAF81
:103C9000E7D2E922123CBA8E398F3A8F828E83EDB9
:103CA000F020FCFD123CC322EF547FFFE519548045
:103CB0004FF519AD197F05023C61A2AF92D5C2AF95
:103CC000D2FD22C2FDA2D592AF22123CBA8FFA20B9
:103CD000FCFD123CC3227D707F07123C61EF5470E3
:103CE000FF227F03123C7CEF2402FF227F17123C4D
:103CF0007CEF5401FF22123D0AEF540EC313FF2242
:103D0000C2E97FE1123D1ED2E922C2E97FFF123DE6
:103D10001ED2E922E5AD7F0130E3027F02228FE768
:103D2000E5E630E1FBAFE7228F828E83E0FF22EFF2
:103D30002411FF023C618D317FA00238EE7F081212
:103D400035F822BB010689828A83E0225002E722ED
:103D5000BBFE02E32289828A83E49322BB010689A7
:103D6000828A83F0225002F722BBFE01F322BB01BC
:103D70000789828A83023E0B500B09C5F027F7C5DD
:103D8000F01937F722BBFE0D09F8E325F0F3C5F073
:103D900019E338F322F889828A8374019325F0C5E8
:103DA000F0F8E4933822BB010A89828A83F0E5F0B7
:103DB000A3F0225006F709A7F01922BBFE06F3E58F
:103DC000F009F31922EB9FF5F0EA9E42F0E99D42DB
:103DD000F0EC6480C864809845F022FAE6FB08089D
:103DE000E6F925F0F618E6CA3AF6228A838982E4D3
:103DF000738FE98EEA8DED8CEE000000000000006C
:103E00000000AFE9AEEAADEDACEE22C5F0F8A3E0FC
:103E100028F0C5F0F8E582158270021583E038F0CD
:103E200022000000000000000000000022787FE473
:103E3000F6D8FD75814D023E74023400E493A3F878
:103E4000E493A34003F68001F208DFF48029E493B1
:103E5000A3F85407240CC8C333C4540F4420C883A8
:103E60004004F456800146F6DFE4800B01020408AA
:103E700010204080903EB9E47E019360BCA3FF54C3
:103E80003F30E509541FFEE493A360010ECF54C0F8
:103E900025E060A840B8E493A3FAE493A3F8E49380
:103EA000A3C8C582C8CAC583CAF0A3C8C582C8CA88
:103EB000C583CADFE9DEE780BE4300060206514142
:103EC000004F0245000ABADA551337450000E7E70C
:073ED000E7E7E7013D1000E8
:00000001FF
