:10090B000D0A48656C6C6F20576F726C64210D0A71
:10091B00000D0A4952512063617463686564210DAF
:10092B000A000D0A20476574205061636B657420C3
:10093B000D0A0054656D7065723A253033642E25AF
:10094B0030346420430D0A000D0A4E6F7420706121
:08095B00636B6574210D0A00B5
:080EB4008F42120C00AF422234
:040EFD00120CD122E0
:100026008B2E8A2F8930AB2EAA2FA9301204E060BE
:10003600130530E5307002052F14F91204E0FF12A3
:050046000EB480E2226F
:1006B400D2817593D77594FE7F041209AC120DD1C3
:1006C400BF02FAD2AFD2EAD2B97F01120C467D0240
:1006D400E4FF120EC47F01120C63E4F515D2E87B2B
:1006E400FF7A09790B120026E4F5127FD07E0712F7
:1006F4000D5BE51560097BFF7A09791C120026E57C
:100704001260457BFF7A09792D120026E517AE1693
:100714007804CEA2E713CE13D8F8F5328E31AE1694
:10072400AF177C007D1012051D7E027F7112050B30
:100734008E338F347BFF7A09793E1200B0AA06A962
:10074400077B0012002680A37BFF7A0979531200ED
:0307540026809864
:03004B0002084F59
:10084F00C0E0C0F0C083C082C0D075D000C000C06F
:0D085F0001C002C003C004C005C006C007F0
:10086C00120DF5E51570047E0180027E008E15EFE9
:10087C005440D394004013120E5AEF700DFB7A00C3
:0A088C007916120EF775120180EDC7
:10089600D007D006D005D004D003D002D001D000B6
:0B08A600D0D0D082D083D0F0D0E03260
:0B0C9D007FFA7E00120CA87FFA7E0098
:0F0CA8000000000000EF1F70011E144E70F222BA
:100D5B00AD07AC06120C9D120C9DED1D70011C1401
:040D6B004C70F122B5
:030023000209636C
:10096300C0E0C0D075D000C000309819C298E51817
:10097300C3940850107474251CF8A699E51C0454FC
:1009830007F51C051830991AC299E519D39401404B
:100993000F747C251BF8E6F599E51B045407F51B3A
:0909A3001519D000D0D0D0E032CB
:1009AC00C2ACE4F51BF51DF519F51AF51CF518D2BA
:1009BC009CC29FD29E43878043D880EF24FC601357
:1009CC0024FE60091470127C037DF780107C037D7B
:1009DC00F3800A7C037DCC80047C037DE68DAA8C9D
:0509EC00BAC299D2AC73
:0109F10022E3
:100C0000E519D3940850F9C2ACE51970048F9980A6
:100C10000E747C251DF8A607E51D045407F51D0577
:040C200019D2AC2217
:030F0100AF182204
:0A0E3C00E51970037F01227F0022F8
:100CD100E51860FCC2AC7474251AF8E6FFE51A0445
:080CE1005407F51A1518D2ACF6
:010CE90022E8
:100DA400EF6009E5A3448054F7F5A32253A3772207
:100D8200EF5401C4333354C0FFE5A354B74FF5A366
:010D9200223E
:0F0DB400EF5403C454F0FFE5A354C74FF5A32237
:0B0DD100E5AD30E3047F0280027F01EB
:010DDC0022F4
:0C0DDD00EF5407FFE5A354F04FF5A322EC
:060ED900E5AD5480FF228C
:060EDF00E5AD5440FF22C6
:0C0DE900EF5407FFE5AD54F84FF5AD22C4
:0A0E46008FE7E5E630E1FBAFE7229D
:020C46008F2EEF
:100C4800E4FF120CB78F2FE52EB40105432F018066
:0B0C580003532FFEAD2FE4FF020C80C1
:020C63008F2ED2
:100C6500E4FF120CB78F2FE52EB40105432F028048
:0B0C750003532FFDAD2FE4FF020C80A5
:020ADE008F1E69
:100AE000E4FF120CB78F1FE51E14600C1460112474
:100AF000027013531FF7800E431F08531FFB80061D
:0D0B0000431F08431F04AD1FE4FF020C80DB
:0407E7008F598D5A3F
:1007EB00E4FF120CB78F5BE55924FB601E146033DA
:1007FB0024027049E55A60047F0080027F01EF54A8
:10080B0001C454F0FFE55B54EF802FE55A60047F81
:10081B000080027F01EF5401C43354E0FFE55B54C9
:10082B00DF8017E55A60047F0080027F01EF5401DF
:10083B00C4333354C0FFE55B54BF4FF55BAD5BE492
:04084B00FF020C801C
:0B0DF5007D707F07120C80EF5470FF30
:010E000022CF
:100CEA007D707F07120C80EF5470F56D7F07120C30
:080CFA00B7EF540F426DAF6D1E
:010D020022CE
:100D93007401A807088002C333D8FCFD7F07020C47
:010DA30080CF
:080EBC00120EAAEF5470FF2290
:0408B1008F4D8D4E8C
:1008B5007F02120CB78F4F7F01120CB78F50E54D99
:1008C50024FA500624076021802EAF4D7401A80735
:1008D500088002C333D8FCFF424FE54E6005EF4266
:1008E500508015EFF45250800F754F3FE54E60056F
:1008F50075503F8003E4F550AD4F7F02120C80AD7B
:06090500507F01020C808E
:0209F2008F5C18
:1009F4007F02120CB78F5D7F01120CB78F5EE55C2E
:100A040024FA5006240760168019AF5C7401A80705
:100A1400088002C333D8FCF4525D525E8005E4F5CD
:100A24005DF55EAD5D7F02120C80AD5E7F01020C50
:010A34008041
:100A35008F518B528A538954E55114600A24FB5017
:100A450019600424067025120E508F0CE551242AD6
:100A5500FFAB52AA53A95402060BE551240AFFAB7A
:0D0A650052AA53A9541204E0FD120C802285
:100AA9008F558B568A578958E55514600824FB6081
:100AB900042406700BAB56AA57A958AF550203AACE
:100AC900E555240AFF120CB7AB56AA57A958EF12DD
:050AD90004F97F012279
:020C2400AB071C
:100C2600EC540FC454F0FFE56E540F4FF56EEB54C1
:100C36000FFFE56E54F04FF56EAD6E7F04020C802B
:100D0300E4F56FEF24FE5403FFE56F54FC4FF56FDA
:070D1300AD6F7F03020C80AD
:0A0E50007F03120CB7EF2402FF220B
:070EC400EF2411FF020C8076
:020757008F43CE
:100759007F02120CB78F447F01120CB78F45E54316
:1007690014601A14602714603414604314604E2412
:1007790005705EE5445401F546E545804EAF44EF0A
:10078900C3135401F546AF45EFC313803EAF44EFA1
:1007990013135401F546AF45EF1313802EAF44EF01
:1007A9001313135401F546AF45EF131313801CAF10
:1007B90044EFC45401F546AF45EFC4800EAF44EF92
:1007C900C4135401F546AF45EFC4135401F54780EE
:0D07D90005E4F546F547E54725E02546FF18
:0107E60022F0
:060EE5007F08120CB72289
:100D1A007F08120CB7EF54F0FFE4C4F854F0C8EFA0
:060D2A00C4540F48FF2233
:100A7200EF146014146015146016146017146018D3
:100A82002405701D7F1180127F12800E7F13800A51
:100A92007F1480067F1580027F16120CB78F70803C
:060AA20003E4F570AF70E3
:010AA800222B
:100D4600E4F571EF547FFFE57154804FF571AD7195
:050D56007F05020C8086
:020003008F5F0D
:100005007F06120CB78F60E55F540325E0FFE560BE
:0C00150054F94FF560AD607F06020C80CE
:020B0D008F61F6
:100B0F007F06120CB78F62E561600924FE700D43FA
:100B1F00622080035362DF5362F780065362DF4324
:090B2F006208AD627F06020C8031
:0A0E5A007F17120CB7EF5401FF22BE
:0C0E01007F17120CB7EFC3135401FF223F
:0B0E31007F17120CB7EFC45401FF2222
:0C0E0D007F17120CB7EFC4135401FF2232
:100D30007F17120CB7EF5430FFE4C4F854F0C8EF3B
:060D4000C4540F48FF221D
:0A0E64007F17120CB7EF5403FF22B2
:060EEB007F17120CB72274
:0A0E6E007F08120CB7EF540FFF22AB
:0A0E78007F09120CB7EF5401FF22AE
:0100210022BC
:0C0E1900EF543FF572AD727F1C020C809C
:020B63008F639E
:100B65007F1D120CB78F64E56360047F0180027FEF
:100B750000EF540125E025E0FFE56454FB4FF564E3
:070B8500AD647F1D020C802E
:020BB4008F654B
:100BB6007F1D120CB78F66E56560047F0180027F9A
:100BC60000EF540125E0FFE56654FD4FF566AD667E
:050BD6007F1D020C80F0
:020BDB008F6722
:100BDD007F1D120CB78F68E56760047F0180027F6F
:100BED0000EF5401FFE56854FE4FF568AD687F1DB9
:030BFD00020C8067
:070ECB008D0C7FA002060B55
:070ED2008D0C7FB002060B3E
:0A0E8200EF44A8FF854C0C02060B9C
:060EF1007F60120CB72225
:060EF7007F081203AA228D
:0E0DC300120EAAEF540EFFE4C313EF13FF222B
:0A0E8C00C2E97FE3120E46D2E9220C
:100D6F00120EEB7E00EF54407806CEC313CE13D88D
:030D7F00F9FF2257
:0A0E9600C2E97FE2120E46D2E92203
:0A0EA000C2E97FE1120E46D2E922FA
:090EAA00C2E97FFF120E46D2E9F5
:010EB300221C
:020B8C008F696F
:100B8E007F06120CB78F6AE56960047F0180027FD1
:100B9E0000EF5401C454F0FFE56A54EF4FF56AAD0F
:060BAE006A7F06020C80C4
:020B38008F6BC1
:100B3A007F06120CB78F6CE56B60047F0180027F21
:100B4A0000EF5401C43333335480FFE56C547F4FB4
:090B5A00F56CAD6C7F06020C8005
:100CB700C2E98FE7E5E6540260FAAFE7E4F5E7E556
:090CC700E6540260FAAFE7D2E93D
:010CD0002201
:100C8000C2E9EF2420F5E7E5E6540260FAAFE78D0C
:0C0C9000E7E5E6540260FA85E773D2E95C
:010C9C002235
:0803AA008F228B238A24892590
:1003B200752A01852328E52214600C24FB60082499
:1003C200FE60142408702C120E508F268F27C2E96B
:1003D200E522240AFF8017120DC38F22E522C3945F
:1003E200075010120EF18F268F27C2E97F61120E7D
:0C03F200468005E4F527F526E528702874
:1003FE0085252BE4F5E7E52A7008A82BA629052B01
:10040E008003E4F52AE5E6540260FA85E729D5264D
:05041E00E2A82BA62955
:090423000204D7E5286401703AD7
:10042C0085242B85252CE4F5E7E52A7013852C8291
:10043C00852B83E529F0052CE52C7007052B800313
:10044C00E4F52AE5E6540260FA85E729D526D78536
:08045C002C82852B83E529F0B9
:080464008071E52864FE702997
:10046C0085252BE4F5E7E52A7009A82BE529F2058B
:10047C002B8003E4F52AE5E6540260FA85E729D5DA
:07048C0026E1A82BE529F28F
:020493008042A5
:1004950085232B85242C85252DE4F5E7E52A701881
:1004A500AB2BAA2CA92DE5291204F97401252DF5EC
:1004B5002DE4352CF52C8003E4F52AE5E65402609D
:1004C500FA85E729D526D2AB2BAA2CA92DE5291229
:0204D50004F928
:0804D700D2E9E522FEE527FF52
:0104DF0022FA
:06060B008B098A0A890B2D
:09061100AD09C2E98FE7ED701993
:10061A00850B0EA80EE6FE050EE5E6540260FA8585
:07062A00E70D8EE7D50CEC93
:070631008075ED64017026E5
:10063800850A0E850B0F850F82850E83E0FE050F58
:10064800E50F7002050EE5E6540260FA85E70D8EA7
:04065800E7D50CE2F4
:07065C00804AED64FE7019F5
:10066300850B0EA80EE2FE050EE5E6540260FA8540
:07067300E70D8EE7D50CEC4A
:02067A00802CD2
:10067C0085090E850A0F850B10AB0EAA0FA9101257
:10068C0004E0FE74012510F510E4350FF50FE5E6D6
:0C069C00540260FA85E70D8EE7D50CDDF6
:0B06A800E5E6540260FA85E70DD2E998
:0106B3002224
:03000000020E25C8
:0C0E2500787FE4F6D8FD7581830206B4E6
:1004E000BB010689828A83E0225002E722BBFE021A
:0904F000E32289828A83E493224D
:1004F900BB010689828A83F0225002F722BBFE01E2
:02050900F322DB
:10050B00EF8DF0A4A8F0CF8CF0A428CE8DF0A42E04
:02051B00FE22BE
:10051D00C2D5EC30E709B2D5E4C39DFDE49CFCEEF9
:10052D0030E715B2D5E4C39FFFE49EFE120580C3EC
:10053D00E49DFDE49CFC800312058030D507C3E4E7
:06054D009FFFE49EFE2268
:10004E00E53D2431F8E6053D22782E300702783161
:10005E00E475F0011205D50204E02000EB7F2ED2EC
:10006E00008018EF540F2490D43440D4FF30040B8A
:10007E00EF24BFB41A0050032461FFE53E60021561
:10008E003E0541E5417002054030070D782EE475BE
:10009E00F0011205D5EF0204F9020EB47403D20773
:1000AE008003E4C207F53D8B2E8A2F8930E4F53E9E
:1000BE00F540F541E53E60077F2012008980F57519
:1000CE003FFFC201C200C202C203C205C206C2087D
:1000DE00120057FF700D3007057F0012009AAF41D6
:1000EE00AE4022B4255FC2D5C204120057FF24D001
:1000FE00B40A00501A75F00A783E30D50508B6FFDE
:10010E000106C6A426F620D5047002D20380D92497
:10011E00CFB41A00EF5004C2E5D20402029AD20103
:10012E0080C6D20080C0D20280BCD2D580BAD205A1
:10013E0080B47F201200892002077401B53E004072
:10014E00F112004EFF1200890200C2D208D20680C0
:10015E009512004EFB12004EFA12004EF94A4B70E9
:10016E0006796B7A037BFF20022EE53E602A7E0025
:10017E008E8275830012055360060EEE653F70F099
:10018E00C2D5EBC0E0EAC0E0E9C0E0EE1202E1D079
:10019E00E0F9D0E0FAD0E0FB1204E0FF60AAEBC079
:1001AE00E0EAC0E0E9C0E0120089D0E02401F9D015
:1001BE00E03400FAD0E0FBE53F0460DCD53FD980A7
:1001CE00877BFF7A0279DDD202809C7910800279DA
:1001DE0008C206C2088008D2D5790A8004790AC2FC
:1001EE00D5E53F047002F53FE4FAFDFEFF12004E26
:1001FE00FC7B0820011312004EFD7B1030000A120A
:10020E00004EFE12004EFF7B20EC3382D592D5506D
:10021E0013C3E43000069FFFE49EFEE42001039D1D
:10022E00FDE49CFCE4CBF8C201EC700CCFCECDCC3F
:10023E00E824F8F870F38017C3EF33FFEE33FEEDCA
:10024E0033FDEC33FCEB33FB994002FB0FD8E9EBAB
:10025E00300105F8D0E0C448B201C0E00AEC4D4EC2
:10026E004F78207B0070C2EAB53F0040BCC0E01260
:10027E0002E3D0F0D0E0200104C4C0E0C4B201C05B
:10028E00F0120072D0F0D5F0EB0200C21205E501BB
:10029E005F5301D95801304C012C4201DD4F01E56D
:0F02AE004401E54901454301EB5501CF4601CF1E
:1002BD004501CF47038B5001342D01382E015B2BA7
:1002CD00013C2301592003742A00F4480000015316
:1002DD003F3F3F00790AA2D5200314300509B9101C
:1002ED00020404B9080104A2D5200602500104201D
:1002FD0002689202B53E005034C0E07F20300319F1
:10030D007F30A20272067205500F12033AC202C26A
:10031D0006C205C2087F30800F300503E9C0E01228
:10032D000089300503D0E0F9D0E0B53ECC3005179B
:10033D007F30B9100C1200897F583004077F788008
:10034D0003B908031200893002057F2D0200897F51
:10035D00202008F87F2B2006F322920280CF286EF2
:10036D00756C6C2900D20112004E3001F8C2017873
:10037D003E30D50108F60200F42D504349581200C5
:10038D004E2403B405004001E49003869312007AD5
:0D039D00743A12007AD203753E040201D9B1
:10055300BB010CE58229F582E5833AF583E022505D
:1005630006E92582F8E622BBFE06E92582F8E222A7
:0D057300E58229F582E5833AF583E49322C1
:10058000BC000BBE0029EF8DF084FFADF022E4CC5F
:10059000F875F008EF2FFFEE33FEEC33FCEE9DEC28
:1005A000984005FCEE9DFE0FD5F0E9E4CEFD22ED6E
:1005B000F8F5F0EE8420D21CFEADF075F008EF2FB8
:1005C000FFED33FD4007985006D5F0F222C398FDA9
:0505D0000FD5F0EA2246
:1005D500FAE6FB0808E6F925F0F618E6CA3AF62227
:1005E500D083D082F8E4937012740193700DA3A3A5
:1005F50093F8740193F5828883E4737402936860B9
:06060500EFA3A3A380DFB8
:00000001FF
