:1009FD000D0A48656C6C6F20576F726C64210D0A7F
:100A0D00000D0A446174612564000D0A2053697A52
:100A1D00654F6620696E743A2025640054656D70CB
:100A2D0065722049733A253033642E2530346420A5
:030A3D00430A0069
:060FAD00AE07120CC62283
:040FD700120D97223E
:100026008B288A29892AAB28AA29A92A1204E060E2
:1000360013052AE52A7002052914F91204E0FF12B5
:050046000FAD80E22275
:100DE000C2907594FE7FF47E01120D6E7594017FA2
:060DF000F47E01020D6E0D
:020AFE00AD0742
:100B0000C2AF7C08ED30E018C2907594FE7F027E83
:100B100000120D6E7594017F3C7E00120D6E800FE9
:100B2000C2907594FE7F3C7E00120D6E759401EDAF
:070B3000C313FDDCCFD2AFBF
:010B3700229B
:100A8300E4FDFCC2AFFBC2907594FE7F027E0012B0
:100A93000D6E7594017F027E00120D6EA290E433F9
:100AA300FC7F327E00120D6EECC43333335480FF6F
:0D0AB300EDC3134FFD0BBB08CDD2AFAF0557
:010AC0002213
:10096F00120DE07FCC120AFE7F44120AFE120DE038
:10097F007FCC120AFE7FBE120AFE120A838F281244
:10098F000A838F29120DE0AF29EFFEE528FFE52935
:10099F00D3947F4012EEF4FEEFF42401FFE43EFE09
:0709AF00C3E49FFFE49EFE7C
:0109B600221E
:10060B00120DE07FCC120AFE7F44120AFE120DE09F
:10061B007FCC120AFE7FBE120AFE120A838F2512AE
:10062B000A838F26120DE0D2817593D77594FE7FC6
:10063B00041209B7120EADBF02FAD2AFD2EAD2B989
:10064B007F01120D297BFF7A0979FD1200267BFFB2
:10065B007A0A790E85252B1200B07BFF7A0A790E68
:10066B0085262B1200B07BFF7A0A7917752B0212A5
:10067B0000B07F107E27120E3712096F8E228F2348
:10068B00752439E5237804CEA2E713CE13D8F8F5F9
:10069B002C8E2BAE22AF237C007D1012051D7E020B
:1006AB007F7112050B8E2D8F2E7BFF7A0A79291203
:0D06BB0000B07B007A0079227D02120F9FB3
:0E06C800752714D2E8AF271527EF70F9C2E8A6
:0906D600751F01E51F60A080FA08
:03004B000208DACE
:1008DA00C0E0C0F0C083C082C0D075D000C000C0E4
:0D08EA0001C002C003C004C005C006C00765
:1008F700120ED1EF24F0600624F070088003120F67
:0409070072751F00E6
:10090B00D007D006D005D004D003D002D001D00040
:0B091B00D0D0D082D083D0F0D0E032EA
:03002300020926A9
:10092600C0E0C0D075D000C000309819C298E51458
:10093600C394085010746C2518F8A699E518045449
:1009460007F518051430991AC299E515D394014094
:100956000F74742517F8E6F599E517045407F5178B
:090966001515D000D0D0D0E0320C
:1009B700C2ACE4F517F519F515F516F518F514D2C7
:1009C7009CC29FD29E43878043D880EF24FC60134C
:1009D70024FE60091470127C037DF780107C037D70
:1009E700F3800A7C037DCC80047C037DE68DAA8C92
:0509F700BAC299D2AC68
:0109FC0022D8
:100CC600E515D3940850F9C2ACE51570048F9980E8
:100CD6000E74742519F8A607E519045407F51905C5
:040CE60015D2AC2255
:030FDB00AF14222E
:0A0F1800E51570037F01227F00221F
:100D9700E51460FCC2AC746C2516F8E6FFE5160492
:080DA7005407F5161514D2AC37
:010DAF002221
:100E8000EF6009E5A3448054F7F5A32253A377222A
:100E5E00EF5401C4333354C0FFE5A354B74FF5A389
:010E6E002261
:0F0E9000EF5403C454F0FFE5A354C74FF5A3225A
:0B0EAD00E5AD30E3047F0280027F010E
:010EB8002217
:0C0EB900EF5407FFE5A354F04FF5A3220F
:060FB300E5AD5480FF22B1
:060FB900E5AD5440FF22EB
:0C0EC500EF5407FFE5AD54F84FF5AD22E7
:0B0D63007FFA7E00120D6E7FFA7E000A
:0F0D6E000000000000EF1F70011E144E70F222F3
:100E3700AD07AC06120D63120D63ED1D70011C1496
:040E47004C70F122D8
:020D0C008F5303
:100D0E00E4FF120D7D8F54E553B401054354018069
:0B0D1E00035354FEAD54E4FF020D46E9
:020D29008F2811
:100D2B00E4FF120D7D8F29E528B4010543290280CC
:0B0D3B00035329FDAD29E4FF020D4623
:020BA4008F556B
:100BA600E4FF120D7D8F56E55514600C1460112478
:100BB6000270135356F7800E4356085356FB8006B1
:0D0BC600435608435604AD56E4FF020D46A9
:040818008F4D8D4E25
:10081C00E4FF120D7D8F4FE54D24FB601E146033F9
:10082C0024027049E54E60047F0080027F01EF5482
:10083C0001C454F0FFE54F54EF802FE54E60047F68
:10084C000080027F01EF5401C43354E0FFE54F54A4
:10085C00DF8017E54E60047F0080027F01EF5401BA
:10086C00C4333354C0FFE54F54BF4FF54FAD4FE485
:04087C00FF020D4624
:0B0ED1007D707F07120D46EF5470FF8C
:010EDC0022F3
:100DB0007D707F07120D46EF5470F5657F07120DA9
:080DC0007DEF540F4265AF65A1
:010DC8002208
:100E6F007401A807088002C333D8FCFD7F07020D69
:010E7F00462C
:080F9000120F7CEF5470FF22E8
:040880008F418D42D5
:100884007F02120D7D8F437F01120D7D8F44E54160
:1008940024FA500624076021802EAF417401A80772
:1008A400088002C333D8FCFF4243E5426005EF42AF
:1008B400448015EFF45244800F75433FE5426005D0
:1008C40075443F8003E4F544AD437F02120D46AD09
:0608D400447F01020D4605
:020A40008F50D5
:100A42007F02120D7D8F517F01120D7D8F52E55075
:100A520024FA5006240760168019AF507401A807C3
:100A6200088002C333D8FCF4525152528005E4F597
:100A720051F552AD517F02120D46AD527F01020D6A
:010A8200462D
:100AC1008F458B468A478948E54514600A24FB50C7
:100AD10019600424067025120F228F2CE545242A63
:100AE100FFAB46AA47A9480206DFE545240AFFAB4A
:0D0AF10046AA47A9481204E0FD120D462256
:100B6F008F498B4A8A4B894CE54914600824FB60F6
:100B7F00042406700BAB4AAA4BA94CAF490203AA37
:100B8F00E549240AFF120D7DAB4AAA4BA94CEF127F
:050B9F0004F97F0122B2
:020CEA00AB0756
:100CEC00EC540FC454F0FFE566540F4FF566EB540B
:100CFC000FFFE56654F04FF566AD667F04020D46B6
:100DC900E4F567EF24FE5403FFE56754FC4FF5672C
:070DD900AD677F03020D4628
:0A0F22007F03120D7DEF2402FF2271
:070F9800EF2411FF020D46DA
:020788008F1AC6
:10078A007F02120D7D8F1B7F01120D7D8F1CE51AD2
:10079A0014601A14602714603414604314604E24E1
:1007AA0005705EE51B5401F51DE51C804EAF1BEF7D
:1007BA00C3135401F51DAF1CEFC313803EAF1BEFEB
:1007CA0013135401F51DAF1CEF1313802EAF1BEF4B
:1007DA001313135401F51DAF1CEF131313801CAF31
:1007EA001BEFC45401F51DAF1CEFC4800EAF1BEF05
:1007FA00C4135401F51DAF1CEFC4135401F51E8038
:0D080A0005E4F51DF51EE51E25E0251DFF8A
:0108170022BE
:060FBF007F08120D7D22E7
:100DF6007F08120D7DEF54F0FFE4C4F854F0C8EFFD
:060E0600C4540F48FF2256
:100B3800EF1460141460151460161460171460180C
:100B48002405701D7F1180127F12800E7F13800A8A
:100B58007F1480067F1580027F16120D7D8F6880B6
:060B680003E4F568AF682C
:010B6E002264
:100E2200E4F569EF547FFFE56954804FF569AD69D8
:050E32007F05020D46E2
:020003008F5715
:100005007F06120D7D8F58E557540325E0FFE5580F
:0C00150054F94FF558AD587F06020D4617
:020BD3008F5938
:100BD5007F06120D7D8F5AE559600924FE700D437D
:100BE5005A208003535ADF535AF78006535ADF437E
:090BF5005A08AD5A7F06020D46B4
:0A0F2C007F17120D7DEF5401FF2224
:0C0EDD007F17120D7DEFC3135401FF229C
:0B0F0D007F17120D7DEFC45401FF227E
:0C0EE9007F17120D7DEFC4135401FF228F
:100E0C007F17120D7DEF5430FFE4C4F854F0C8EF97
:060E1C00C4540F48FF2240
:0A0F36007F17120D7DEF5403FF2218
:060FC5007F17120D7D22D2
:0A0F40007F08120D7DEF540FFF2211
:0A0F4A007F09120D7DEF5401FF2214
:0100210022BC
:0C0EF500EF543FF56AAD6A7F1C020D4609
:020C29008F5BDF
:100C2B007F1D120D7D8F5CE55B60047F0180027F71
:100C3B0000EF540125E025E0FFE55C54FB4FF55C2C
:070C4B00AD5C7F1D020D46A8
:020C7A008F5D8C
:100C7C007F1D120D7D8F5EE55D60047F0180027F1C
:100C8C0000EF540125E0FFE55E54FD4FF55EAD5ECF
:050C9C007F1D020D4662
:020CA1008F5F63
:100CA3007F1D120D7D8F60E55F60047F0180027FF1
:100CB30000EF5401FFE56054FE4FF560AD607F1D0A
:030CC300020D46D9
:070F9F008D2C7FA00206DF8C
:070FA6008D2C7FB00206DF75
:0A0F5400EF44A8FF85402C0206DFE1
:060FCB007F60120D7D2283
:060FD1007F081203AA22B2
:0E0E9F00120F7CEF540EFFE4C313EF13FF227B
:0A0F5E00C2E97FE3120F86D2E922F8
:100E4B00120FC57E00EF54407806CEC313CE13D8D5
:030E5B00F9FF227A
:0A0F6800C2E97FE2120F86D2E922EF
:0A0F7200C2E97FE1120F86D2E922E6
:090F7C00C2E97FFF120F86D2E9E1
:010F85002249
:020C52008F61B0
:100C54007F06120D7D8F62E56160047F0180027F53
:100C640000EF5401C454F0FFE56254EF4FF562AD58
:060C7400627F06020D463E
:020BFE008F6303
:100C00007F06120D7D8F64E56360047F0180027FA3
:100C100000EF5401C43333335480FFE564547F4FF5
:090C2000F564AD647F06020D4687
:100D7D00C2E98FE7E5E6540260FAAFE7E4F5E7E58F
:090D8D00E6540260FAAFE7D2E976
:010D9600223A
:100D4600C2E9EF2420F5E7E5E6540260FAAFE78D45
:0C0D5600E7E5E6540260FA85E76BD2E99D
:010D6200226E
:0803AA008F088B098A0A890BF8
:1003B20075100185090EE50814600C24FB60082401
:1003C200FE60142408702C120F228F0C8F0DC2E9CC
:1003D200E508240AFF8017120E9F8F08E508C394D0
:1003E200075010120FCB8F0C8F0DC2E97F61120FD5
:0C03F200868005E4F50DF50CE50E702882
:1003FE00850B11E4F5E7E5107008A811A60F05119D
:10040E008003E4F510E5E6540260FA85E70FD50C9B
:05041E00E2A811A60F89
:090423000204D7E50E6401703AF1
:10042C00850A11850B12E4F5E7E51070138512822D
:10043C00851183E50FF00512E51270070511800395
:10044C00E4F510E5E6540260FA85E70FD50CD78584
:08045C001282851183E50FF007
:080464008071E50E64FE7029B1
:10046C00850B11E4F5E7E5107009A811E50FF2050D
:10047C00118003E4F510E5E6540260FA85E70FD528
:07048C000CE1A811E50FF2DD
:020493008042A5
:10049500850911850A12850B13E4F5E7E510701837
:1004A500AB11AA12A913E50F1204F974012513F56E
:1004B50013E43512F5128003E4F510E5E654026005
:1004C500FA85E70FD50CD2AB11AA12A913E50F12C5
:0204D50004F928
:0804D700D2E9E508FEE50DFF86
:0104DF0022FA
:0606DF008B298A2A892BF9
:0906E500AD29C2E98FE7ED70199F
:1006EE00852B2EA82EE6FE052EE5E6540260FA8531
:0706FE00E72D8EE7D52CEC7F
:070705008075ED6401702610
:10070C00852A2E852B2F852F82852E83E0FE052FA3
:10071C00E52F7002052EE5E6540260FA85E72D8E72
:04072C00E7D52CE2FF
:07073000804AED64FE701920
:10073700852B2EA82EE2FE052EE5E6540260FA85EB
:07074700E72D8EE7D52CEC35
:02074E00802CFD
:1007500085292E852A2F852B30AB2EAA2FA9301262
:1007600004E0FE74012530F530E4352FF52FE5E681
:0C077000540260FA85E72D8EE7D52CDDE1
:0B077C00E5E6540260FA85E72DD2E9A3
:01078700224F
:0A0F86008FE7E5E630E1FBAFE7225C
:03000000020F01EB
:0C0F0100787FE4F6D8FD75817B02060BBA
:1004E000BB010689828A83E0225002E722BBFE021A
:0904F000E32289828A83E493224D
:1004F900BB010689828A83F0225002F722BBFE01E2
:02050900F322DB
:10050B00EF8DF0A4A8F0CF8CF0A428CE8DF0A42E04
:02051B00FE22BE
:10051D00C2D5EC30E709B2D5E4C39DFDE49CFCEEF9
:10052D0030E715B2D5E4C39FFFE49EFE120580C3EC
:10053D00E49DFDE49CFC800312058030D507C3E4E7
:06054D009FFFE49EFE2268
:10004E00E537242BF8E60537227828300702782B7F
:10005E00E475F0011205D50204E02000EB7F2ED2EC
:10006E00008018EF540F2490D43440D4FF30040B8A
:10007E00EF24BFB41A0050032461FFE53860021567
:10008E0038053BE53B7002053A30070D7828E475DC
:10009E00F0011205D5EF0204F9020FAD7403D20779
:1000AE008003E4C207F5378B288A29892AE4F538BC
:1000BE00F53AF53BE53860077F2012008980F5752B
:1000CE0039FFC201C200C202C203C205C206C20883
:1000DE00120057FF700D3007057F0012009AAF3BDC
:1000EE00AE3A22B4255FC2D5C204120057FF24D007
:1000FE00B40A00501A75F00A783830D50508B6FFE4
:10010E000106C6A426F620D5047002D20380D92497
:10011E00CFB41A00EF5004C2E5D20402029AD20103
:10012E0080C6D20080C0D20280BCD2D580BAD205A1
:10013E0080B47F201200892002077401B538004078
:10014E00F112004EFF1200890200C2D208D20680C0
:10015E009512004EFB12004EFA12004EF94A4B70E9
:10016E0006796B7A037BFF20022EE538602A7E002B
:10017E008E8275830012055360060EEE653970F09F
:10018E00C2D5EBC0E0EAC0E0E9C0E0EE1202E1D079
:10019E00E0F9D0E0FAD0E0FB1204E0FF60AAEBC079
:1001AE00E0EAC0E0E9C0E0120089D0E02401F9D015
:1001BE00E03400FAD0E0FBE5390460DCD539D980B3
:1001CE00877BFF7A0279DDD202809C7910800279DA
:1001DE0008C206C2088008D2D5790A8004790AC2FC
:1001EE00D5E539047002F539E4FAFDFEFF12004E32
:1001FE00FC7B0820011312004EFD7B1030000A120A
:10020E00004EFE12004EFF7B20EC3382D592D5506D
:10021E0013C3E43000069FFFE49EFEE42001039D1D
:10022E00FDE49CFCE4CBF8C201EC700CCFCECDCC3F
:10023E00E824F8F870F38017C3EF33FFEE33FEEDCA
:10024E0033FDEC33FCEB33FB994002FB0FD8E9EBAB
:10025E00300105F8D0E0C448B201C0E00AEC4D4EC2
:10026E004F78207B0070C2EAB5390040BCC0E01266
:10027E0002E3D0F0D0E0200104C4C0E0C4B201C05B
:10028E00F0120072D0F0D5F0EB0200C21205E501BB
:10029E005F5301D95801304C012C4201DD4F01E56D
:0F02AE004401E54901454301EB5501CF4601CF1E
:1002BD004501CF47038B5001342D01382E015B2BA7
:1002CD00013C2301592003742A00F4480000015316
:1002DD003F3F3F00790AA2D5200314300509B9101C
:1002ED00020404B9080104A2D5200602500104201D
:1002FD0002689202B538005034C0E07F20300319F7
:10030D007F30A20272067205500F12033AC202C26A
:10031D0006C205C2087F30800F300503E9C0E01228
:10032D000089300503D0E0F9D0E0B538CC300517A1
:10033D007F30B9100C1200897F583004077F788008
:10034D0003B908031200893002057F2D0200897F51
:10035D00202008F87F2B2006F322920280CF286EF2
:10036D00756C6C2900D20112004E3001F8C2017873
:10037D003830D50108F60200F42D504349581200CB
:10038D004E2403B405004001E49003869312007AD5
:0D039D00743A12007AD2037538040201D9B7
:10055300BB010CE58229F582E5833AF583E022505D
:1005630006E92582F8E622BBFE06E92582F8E222A7
:0D057300E58229F582E5833AF583E49322C1
:10058000BC000BBE0029EF8DF084FFADF022E4CC5F
:10059000F875F008EF2FFFEE33FEEC33FCEE9DEC28
:1005A000984005FCEE9DFE0FD5F0E9E4CEFD22ED6E
:1005B000F8F5F0EE8420D21CFEADF075F008EF2FB8
:1005C000FFED33FD4007985006D5F0F222C398FDA9
:0505D0000FD5F0EA2246
:1005D500FAE6FB0808E6F925F0F618E6CA3AF62227
:1005E500D083D082F8E4937012740193700DA3A3A5
:1005F50093F8740193F5828883E4737402936860B9
:06060500EFA3A3A380DFB8
:00000001FF
